{
  "_format": "hh-sol-artifact-1",
  "contractName": "Bridge",
  "sourceName": "contracts/bridge.sol",
  "abi": [
    {
      "inputs": [],
      "stateMutability": "nonpayable",
      "type": "constructor"
    },
    {
      "inputs": [],
      "name": "ECDSAInvalidSignature",
      "type": "error"
    },
    {
      "inputs": [
        {
          "internalType": "uint256",
          "name": "length",
          "type": "uint256"
        }
      ],
      "name": "ECDSAInvalidSignatureLength",
      "type": "error"
    },
    {
      "inputs": [
        {
          "internalType": "bytes32",
          "name": "s",
          "type": "bytes32"
        }
      ],
      "name": "ECDSAInvalidSignatureS",
      "type": "error"
    },
    {
      "inputs": [],
      "name": "InvalidInitialization",
      "type": "error"
    },
    {
      "inputs": [],
      "name": "NotInitializing",
      "type": "error"
    },
    {
      "inputs": [
        {
          "internalType": "address",
          "name": "owner",
          "type": "address"
        }
      ],
      "name": "OwnableInvalidOwner",
      "type": "error"
    },
    {
      "inputs": [
        {
          "internalType": "address",
          "name": "account",
          "type": "address"
        }
      ],
      "name": "OwnableUnauthorizedAccount",
      "type": "error"
    },
    {
      "anonymous": false,
      "inputs": [
        {
          "indexed": false,
          "internalType": "address",
          "name": "fromAddress",
          "type": "address"
        },
        {
          "indexed": false,
          "internalType": "address",
          "name": "toAddress",
          "type": "address"
        },
        {
          "indexed": false,
          "internalType": "uint256",
          "name": "amount",
          "type": "uint256"
        },
        {
          "indexed": false,
          "internalType": "uint256",
          "name": "nonce",
          "type": "uint256"
        },
        {
          "indexed": false,
          "internalType": "uint256",
          "name": "deadline",
          "type": "uint256"
        },
        {
          "indexed": false,
          "internalType": "bytes32",
          "name": "msgHash",
          "type": "bytes32"
        }
      ],
      "name": "BridgeIn",
      "type": "event"
    },
    {
      "anonymous": false,
      "inputs": [
        {
          "indexed": false,
          "internalType": "address",
          "name": "fromAddress",
          "type": "address"
        },
        {
          "indexed": false,
          "internalType": "address",
          "name": "toAddress",
          "type": "address"
        },
        {
          "indexed": false,
          "internalType": "uint256",
          "name": "amount",
          "type": "uint256"
        },
        {
          "indexed": false,
          "internalType": "uint256",
          "name": "nonce",
          "type": "uint256"
        },
        {
          "indexed": false,
          "internalType": "uint256",
          "name": "deadline",
          "type": "uint256"
        },
        {
          "indexed": false,
          "internalType": "bytes32",
          "name": "msgHash",
          "type": "bytes32"
        }
      ],
      "name": "BridgeOut",
      "type": "event"
    },
    {
      "anonymous": false,
      "inputs": [
        {
          "indexed": false,
          "internalType": "address",
          "name": "fromAddress",
          "type": "address"
        },
        {
          "indexed": false,
          "internalType": "address",
          "name": "toAddress",
          "type": "address"
        },
        {
          "indexed": false,
          "internalType": "uint256",
          "name": "amount",
          "type": "uint256"
        },
        {
          "indexed": false,
          "internalType": "uint256",
          "name": "nonce",
          "type": "uint256"
        },
        {
          "indexed": false,
          "internalType": "uint256",
          "name": "deadline",
          "type": "uint256"
        },
        {
          "indexed": false,
          "internalType": "bytes32",
          "name": "msgHash",
          "type": "bytes32"
        }
      ],
      "name": "CancelBridge",
      "type": "event"
    },
    {
      "anonymous": false,
      "inputs": [
        {
          "indexed": false,
          "internalType": "uint64",
          "name": "version",
          "type": "uint64"
        }
      ],
      "name": "Initialized",
      "type": "event"
    },
    {
      "anonymous": false,
      "inputs": [
        {
          "indexed": true,
          "internalType": "address",
          "name": "previousOwner",
          "type": "address"
        },
        {
          "indexed": true,
          "internalType": "address",
          "name": "newOwner",
          "type": "address"
        }
      ],
      "name": "OwnershipTransferred",
      "type": "event"
    },
    {
      "inputs": [
        {
          "internalType": "address[]",
          "name": "users",
          "type": "address[]"
        }
      ],
      "name": "batchGetBridgeOutAmount",
      "outputs": [
        {
          "internalType": "uint256",
          "name": "",
          "type": "uint256"
        }
      ],
      "stateMutability": "view",
      "type": "function"
    },
    {
      "inputs": [
        {
          "internalType": "address",
          "name": "toAddress",
          "type": "address"
        },
        {
          "internalType": "uint256",
          "name": "amount",
          "type": "uint256"
        },
        {
          "internalType": "uint256",
          "name": "_nonce",
          "type": "uint256"
        },
        {
          "internalType": "uint256",
          "name": "_deadline",
          "type": "uint256"
        },
        {
          "internalType": "bytes",
          "name": "signature",
          "type": "bytes"
        }
      ],
      "name": "bridgeIn",
      "outputs": [],
      "stateMutability": "nonpayable",
      "type": "function"
    },
    {
      "inputs": [
        {
          "internalType": "address",
          "name": "toAddress",
          "type": "address"
        },
        {
          "internalType": "uint256",
          "name": "amount",
          "type": "uint256"
        }
      ],
      "name": "bridgeOut",
      "outputs": [],
      "stateMutability": "nonpayable",
      "type": "function"
    },
    {
      "inputs": [
        {
          "internalType": "address",
          "name": "",
          "type": "address"
        }
      ],
      "name": "bridgedAmount",
      "outputs": [
        {
          "internalType": "uint256",
          "name": "",
          "type": "uint256"
        }
      ],
      "stateMutability": "view",
      "type": "function"
    },
    {
      "inputs": [
        {
          "internalType": "address",
          "name": "fromAddress",
          "type": "address"
        },
        {
          "internalType": "address",
          "name": "toAddress",
          "type": "address"
        },
        {
          "internalType": "uint256",
          "name": "amount",
          "type": "uint256"
        },
        {
          "internalType": "uint256",
          "name": "_nonce",
          "type": "uint256"
        },
        {
          "internalType": "uint256",
          "name": "_deadline",
          "type": "uint256"
        },
        {
          "internalType": "bytes",
          "name": "signature",
          "type": "bytes"
        }
      ],
      "name": "cancelBridge",
      "outputs": [],
      "stateMutability": "nonpayable",
      "type": "function"
    },
    {
      "inputs": [
        {
          "internalType": "address",
          "name": "",
          "type": "address"
        }
      ],
      "name": "canceler",
      "outputs": [
        {
          "internalType": "bool",
          "name": "",
          "type": "bool"
        }
      ],
      "stateMutability": "view",
      "type": "function"
    },
    {
      "inputs": [],
      "name": "chainId",
      "outputs": [
        {
          "internalType": "uint256",
          "name": "",
          "type": "uint256"
        }
      ],
      "stateMutability": "view",
      "type": "function"
    },
    {
      "inputs": [],
      "name": "deadline",
      "outputs": [
        {
          "internalType": "uint256",
          "name": "",
          "type": "uint256"
        }
      ],
      "stateMutability": "view",
      "type": "function"
    },
    {
      "inputs": [
        {
          "internalType": "uint256",
          "name": "amount",
          "type": "uint256"
        }
      ],
      "name": "emergencyWithdraw",
      "outputs": [],
      "stateMutability": "nonpayable",
      "type": "function"
    },
    {
      "inputs": [],
      "name": "feeRate",
      "outputs": [
        {
          "internalType": "uint256",
          "name": "",
          "type": "uint256"
        }
      ],
      "stateMutability": "view",
      "type": "function"
    },
    {
      "inputs": [
        {
          "internalType": "address",
          "name": "user",
          "type": "address"
        }
      ],
      "name": "getBridgeOutAmount",
      "outputs": [
        {
          "internalType": "uint256",
          "name": "",
          "type": "uint256"
        }
      ],
      "stateMutability": "view",
      "type": "function"
    },
    {
      "inputs": [
        {
          "internalType": "address",
          "name": "_token",
          "type": "address"
        },
        {
          "internalType": "address",
          "name": "_signer",
          "type": "address"
        },
        {
          "internalType": "uint256",
          "name": "_chainId",
          "type": "uint256"
        }
      ],
      "name": "initialize",
      "outputs": [],
      "stateMutability": "nonpayable",
      "type": "function"
    },
    {
      "inputs": [],
      "name": "nonce",
      "outputs": [
        {
          "internalType": "uint256",
          "name": "",
          "type": "uint256"
        }
      ],
      "stateMutability": "view",
      "type": "function"
    },
    {
      "inputs": [],
      "name": "owner",
      "outputs": [
        {
          "internalType": "address",
          "name": "",
          "type": "address"
        }
      ],
      "stateMutability": "view",
      "type": "function"
    },
    {
      "inputs": [],
      "name": "paused",
      "outputs": [
        {
          "internalType": "bool",
          "name": "",
          "type": "bool"
        }
      ],
      "stateMutability": "view",
      "type": "function"
    },
    {
      "inputs": [
        {
          "internalType": "bytes32",
          "name": "",
          "type": "bytes32"
        }
      ],
      "name": "processedCrossChainTxs",
      "outputs": [
        {
          "internalType": "bool",
          "name": "",
          "type": "bool"
        }
      ],
      "stateMutability": "view",
      "type": "function"
    },
    {
      "inputs": [],
      "name": "renounceOwnership",
      "outputs": [],
      "stateMutability": "nonpayable",
      "type": "function"
    },
    {
      "inputs": [
        {
          "internalType": "address",
          "name": "_canceler",
          "type": "address"
        }
      ],
      "name": "setCanceler",
      "outputs": [],
      "stateMutability": "nonpayable",
      "type": "function"
    },
    {
      "inputs": [
        {
          "internalType": "uint256",
          "name": "_chainId",
          "type": "uint256"
        }
      ],
      "name": "setChainId",
      "outputs": [],
      "stateMutability": "nonpayable",
      "type": "function"
    },
    {
      "inputs": [
        {
          "internalType": "uint256",
          "name": "_deadline",
          "type": "uint256"
        }
      ],
      "name": "setDeadline",
      "outputs": [],
      "stateMutability": "nonpayable",
      "type": "function"
    },
    {
      "inputs": [
        {
          "internalType": "uint256",
          "name": "_feeRate",
          "type": "uint256"
        }
      ],
      "name": "setFee",
      "outputs": [],
      "stateMutability": "nonpayable",
      "type": "function"
    },
    {
      "inputs": [
        {
          "internalType": "bool",
          "name": "_paused",
          "type": "bool"
        }
      ],
      "name": "setPaused",
      "outputs": [],
      "stateMutability": "nonpayable",
      "type": "function"
    },
    {
      "inputs": [
        {
          "internalType": "address",
          "name": "_signer",
          "type": "address"
        }
      ],
      "name": "setSigner",
      "outputs": [],
      "stateMutability": "nonpayable",
      "type": "function"
    },
    {
      "inputs": [
        {
          "internalType": "address",
          "name": "_token",
          "type": "address"
        }
      ],
      "name": "setToken",
      "outputs": [],
      "stateMutability": "nonpayable",
      "type": "function"
    },
    {
      "inputs": [],
      "name": "signer",
      "outputs": [
        {
          "internalType": "address",
          "name": "",
          "type": "address"
        }
      ],
      "stateMutability": "view",
      "type": "function"
    },
    {
      "inputs": [],
      "name": "token",
      "outputs": [
        {
          "internalType": "contract IERC20",
          "name": "",
          "type": "address"
        }
      ],
      "stateMutability": "view",
      "type": "function"
    },
    {
      "inputs": [
        {
          "internalType": "address",
          "name": "newOwner",
          "type": "address"
        }
      ],
      "name": "transferOwnership",
      "outputs": [],
      "stateMutability": "nonpayable",
      "type": "function"
    }
  ],
  "bytecode": "0x60806040523480156200001157600080fd5b50620000226200002860201b60201c565b620001bb565b60006200003a6200013260201b60201c565b90508060000160089054906101000a900460ff161562000086576040517ff92ee8a900000000000000000000000000000000000000000000000000000000815260040160405180910390fd5b67ffffffffffffffff80168160000160009054906101000a900467ffffffffffffffff1667ffffffffffffffff16146200012f5767ffffffffffffffff8160000160006101000a81548167ffffffffffffffff021916908367ffffffffffffffff1602179055507fc7f505b2f371ae2175ee4913f4499e1f2633a7b5936321eed1cdaeb6115181d267ffffffffffffffff6040516200012691906200019e565b60405180910390a15b50565b600080620001456200014e60201b60201c565b90508091505090565b60007ff0c57e16840df040f15088dc2f81fe391c3923bec73e23a9662efc9c229c6a0060001b905090565b600067ffffffffffffffff82169050919050565b620001988162000179565b82525050565b6000602082019050620001b560008301846200018d565b92915050565b6123c280620001cb6000396000f3fe608060405234801561001057600080fd5b50600436106101375760003560e01c80638da5cb5b116100b8578063affed0e01161007c578063affed0e014610300578063c20a18aa1461031e578063d0fe70b91461034e578063ef0e2ff41461037e578063f2fde38b1461039a578063fc0c546a146103b657610137565b80638da5cb5b1461025a578063978bbdb9146102785780639854175f146102965780639a8a0592146102b2578063aee8a7d4146102d057610137565b80635c975abb116100ff5780635c975abb146101de57806369fe0e2d146101fc5780636c19e78314610218578063715018a61461023457806389931dbf1461023e57610137565b806316c38b3c1461013c5780631794bb3c14610158578063238ac93314610174578063348f0209146101925780635312ea8e146101c2575b600080fd5b61015660048036038101906101519190611759565b6103d4565b005b610172600480360381019061016d919061181a565b6103f9565b005b61017c61063c565b604051610189919061187c565b60405180910390f35b6101ac60048036038101906101a79190611897565b610662565b6040516101b991906118d3565b60405180910390f35b6101dc60048036038101906101d791906118ee565b61067a565b005b6101e6610769565b6040516101f3919061192a565b60405180910390f35b610216600480360381019061021191906118ee565b61077c565b005b610232600480360381019061022d9190611897565b61078e565b005b61023c6107da565b005b610258600480360381019061025391906119aa565b6107ee565b005b610262610c4f565b60405161026f919061187c565b60405180910390f35b610280610c87565b60405161028d91906118d3565b60405180910390f35b6102b060048036038101906102ab9190611a32565b610c8d565b005b6102ba610f98565b6040516102c791906118d3565b60405180910390f35b6102ea60048036038101906102e59190611aa8565b610f9e565b6040516102f7919061192a565b60405180910390f35b610308610fbe565b60405161031591906118d3565b60405180910390f35b61033860048036038101906103339190611b2b565b610fc4565b60405161034591906118d3565b60405180910390f35b61036860048036038101906103639190611897565b61106b565b60405161037591906118d3565b60405180910390f35b610398600480360381019061039391906118ee565b6110b4565b005b6103b460048036038101906103af9190611897565b6110c6565b005b6103be61114c565b6040516103cb9190611bd7565b60405180910390f35b6103dc611170565b80600260006101000a81548160ff02191690831515021790555050565b60006104036111f7565b905060008160000160089054906101000a900460ff1615905060008260000160009054906101000a900467ffffffffffffffff1690506000808267ffffffffffffffff161480156104515750825b9050600060018367ffffffffffffffff16148015610486575060003073ffffffffffffffffffffffffffffffffffffffff163b145b905081158015610494575080155b156104cb576040517ff92ee8a900000000000000000000000000000000000000000000000000000000815260040160405180910390fd5b60018560000160006101000a81548167ffffffffffffffff021916908367ffffffffffffffff160217905550831561051b5760018560000160086101000a81548160ff0219169083151502179055505b61052b61052661120b565b611213565b876000806101000a81548173ffffffffffffffffffffffffffffffffffffffff021916908373ffffffffffffffffffffffffffffffffffffffff1602179055506000600260006101000a81548160ff0219169083151502179055508560038190555086600460006101000a81548173ffffffffffffffffffffffffffffffffffffffff021916908373ffffffffffffffffffffffffffffffffffffffff16021790555060c860058190555083156106325760008560000160086101000a81548160ff0219169083151502179055507fc7f505b2f371ae2175ee4913f4499e1f2633a7b5936321eed1cdaeb6115181d260016040516106299190611c41565b60405180910390a15b5050505050505050565b600460009054906101000a900473ffffffffffffffffffffffffffffffffffffffff1681565b60076020528060005260406000206000915090505481565b610682611170565b60008054906101000a900473ffffffffffffffffffffffffffffffffffffffff1673ffffffffffffffffffffffffffffffffffffffff1663a9059cbb6106c6610c4f565b836040518363ffffffff1660e01b81526004016106e4929190611c5c565b6020604051808303816000875af1158015610703573d6000803e3d6000fd5b505050506040513d601f19601f820116820180604052508101906107279190611c9a565b610766576040517f08c379a000000000000000000000000000000000000000000000000000000000815260040161075d90611d24565b60405180910390fd5b50565b600260009054906101000a900460ff1681565b610784611170565b8060058190555050565b610796611170565b80600460006101000a81548173ffffffffffffffffffffffffffffffffffffffff021916908373ffffffffffffffffffffffffffffffffffffffff16021790555050565b6107e2611170565b6107ec6000611227565b565b600260009054906101000a900460ff161561083e576040517f08c379a000000000000000000000000000000000000000000000000000000000815260040161083590611d90565b60405180910390fd5b62aa36a760035414610885576040517f08c379a000000000000000000000000000000000000000000000000000000000815260040161087c90611dfc565b60405180910390fd5b600073ffffffffffffffffffffffffffffffffffffffff168573ffffffffffffffffffffffffffffffffffffffff16036108f4576040517f08c379a00000000000000000000000000000000000000000000000000000000081526004016108eb90611e68565b60405180910390fd5b600085858560405160200161090b93929190611ef1565b6040516020818303038152906040528051906020012090506000612710600554876109369190611f5d565b6109409190611fce565b9050808661094e9190611fff565b95506006600083815260200190815260200160002060009054906101000a900460ff16156109b1576040517f08c379a00000000000000000000000000000000000000000000000000000000081526004016109a8906120a5565b60405180910390fd5b60016006600084815260200190815260200160002060006101000a81548160ff0219169083151502179055506000610a2d8386868080601f016020809104026020016040519081016040528093929190818152602001838380828437600081840152601f19601f820116905080830192505050505050506112fe565b9050600460009054906101000a900473ffffffffffffffffffffffffffffffffffffffff1673ffffffffffffffffffffffffffffffffffffffff168173ffffffffffffffffffffffffffffffffffffffff1614610abf576040517f08c379a0000000000000000000000000000000000000000000000000000000008152600401610ab690612111565b60405180910390fd5b60008054906101000a900473ffffffffffffffffffffffffffffffffffffffff1673ffffffffffffffffffffffffffffffffffffffff1663a9059cbb89896040518363ffffffff1660e01b8152600401610b1a929190611c5c565b6020604051808303816000875af1158015610b39573d6000803e3d6000fd5b505050506040513d601f19601f82011682018060405250810190610b5d9190611c9a565b5060008054906101000a900473ffffffffffffffffffffffffffffffffffffffff1673ffffffffffffffffffffffffffffffffffffffff1663a9059cbb61dead846040518363ffffffff1660e01b8152600401610bbb929190611c5c565b6020604051808303816000875af1158015610bda573d6000803e3d6000fd5b505050506040513d601f19601f82011682018060405250810190610bfe9190611c9a565b507ffb0e36b141baa2d68488cd3db681082686f024ed5bcd1a186e08a56215db9ee0610c2861120b565b89898987604051610c3d959493929190612140565b60405180910390a15050505050505050565b600080610c5a61132a565b90508060000160009054906101000a900473ffffffffffffffffffffffffffffffffffffffff1691505090565b60055481565b600260009054906101000a900460ff1615610cdd576040517f08c379a0000000000000000000000000000000000000000000000000000000008152600401610cd490611d90565b60405180910390fd5b600073ffffffffffffffffffffffffffffffffffffffff168273ffffffffffffffffffffffffffffffffffffffff1603610d4c576040517f08c379a0000000000000000000000000000000000000000000000000000000008152600401610d4390611e68565b60405180910390fd5b6207d20160035414610d93576040517f08c379a0000000000000000000000000000000000000000000000000000000008152600401610d8a90611dfc565b60405180910390fd5b60008054906101000a900473ffffffffffffffffffffffffffffffffffffffff1673ffffffffffffffffffffffffffffffffffffffff166323b872dd610dd761120b565b30846040518463ffffffff1660e01b8152600401610df793929190612193565b6020604051808303816000875af1158015610e16573d6000803e3d6000fd5b505050506040513d601f19601f82011682018060405250810190610e3a9190611c9a565b610e79576040517f08c379a0000000000000000000000000000000000000000000000000000000008152600401610e7090612216565b60405180910390fd5b60008282600154604051602001610e9293929190611ef1565b60405160208183030381529060405280519060200120905060016006600083815260200190815260200160002060006101000a81548160ff0219169083151502179055508160076000610ee361120b565b73ffffffffffffffffffffffffffffffffffffffff1673ffffffffffffffffffffffffffffffffffffffff1681526020019081526020016000206000828254610f2c9190612236565b925050819055507feb59c3e78048df3e95c9003b23a2f0edd45c707f5dafa84a116bd5111b8f7134610f5c61120b565b848460015485604051610f73959493929190612140565b60405180910390a160016000815480929190610f8e9061226a565b9190505550505050565b60035481565b60066020528060005260406000206000915054906101000a900460ff1681565b60015481565b6000806000905060005b848490508110156110605760076000868684818110610ff057610fef6122b2565b5b90506020020160208101906110059190611897565b73ffffffffffffffffffffffffffffffffffffffff1673ffffffffffffffffffffffffffffffffffffffff168152602001908152602001600020548261104b9190612236565b915080806110589061226a565b915050610fce565b508091505092915050565b6000600760008373ffffffffffffffffffffffffffffffffffffffff1673ffffffffffffffffffffffffffffffffffffffff168152602001908152602001600020549050919050565b6110bc611170565b8060038190555050565b6110ce611170565b600073ffffffffffffffffffffffffffffffffffffffff168173ffffffffffffffffffffffffffffffffffffffff16036111405760006040517f1e4fbdf7000000000000000000000000000000000000000000000000000000008152600401611137919061187c565b60405180910390fd5b61114981611227565b50565b60008054906101000a900473ffffffffffffffffffffffffffffffffffffffff1681565b61117861120b565b73ffffffffffffffffffffffffffffffffffffffff16611196610c4f565b73ffffffffffffffffffffffffffffffffffffffff16146111f5576111b961120b565b6040517f118cdaa70000000000000000000000000000000000000000000000000000000081526004016111ec919061187c565b60405180910390fd5b565b600080611202611352565b90508091505090565b600033905090565b61121b61137d565b611224816113bd565b50565b600061123161132a565b905060008160000160009054906101000a900473ffffffffffffffffffffffffffffffffffffffff169050828260000160006101000a81548173ffffffffffffffffffffffffffffffffffffffff021916908373ffffffffffffffffffffffffffffffffffffffff1602179055508273ffffffffffffffffffffffffffffffffffffffff168173ffffffffffffffffffffffffffffffffffffffff167f8be0079c531659141344cd1fd0a4f28419497f9722a3daafe3b4186f6b6457e060405160405180910390a3505050565b60008060008061130e8686611443565b92509250925061131e828261149f565b82935050505092915050565b60007f9016d09d72d40fdae2fd8ceac6b6234c7706214fd39c1cd1e609a0528c199300905090565b60007ff0c57e16840df040f15088dc2f81fe391c3923bec73e23a9662efc9c229c6a0060001b905090565b611385611603565b6113bb576040517fd7e6bcf800000000000000000000000000000000000000000000000000000000815260040160405180910390fd5b565b6113c561137d565b600073ffffffffffffffffffffffffffffffffffffffff168173ffffffffffffffffffffffffffffffffffffffff16036114375760006040517f1e4fbdf700000000000000000000000000000000000000000000000000000000815260040161142e919061187c565b60405180910390fd5b61144081611227565b50565b600080600060418451036114885760008060006020870151925060408701519150606087015160001a905061147a88828585611623565b955095509550505050611498565b60006002855160001b9250925092505b9250925092565b600060038111156114b3576114b26122e1565b5b8260038111156114c6576114c56122e1565b5b03156115ff57600160038111156114e0576114df6122e1565b5b8260038111156114f3576114f26122e1565b5b0361152a576040517ff645eedf00000000000000000000000000000000000000000000000000000000815260040160405180910390fd5b6002600381111561153e5761153d6122e1565b5b826003811115611551576115506122e1565b5b03611596578060001c6040517ffce698f700000000000000000000000000000000000000000000000000000000815260040161158d91906118d3565b60405180910390fd5b6003808111156115a9576115a86122e1565b5b8260038111156115bc576115bb6122e1565b5b036115fe57806040517fd78bce0c0000000000000000000000000000000000000000000000000000000081526004016115f59190612310565b60405180910390fd5b5b5050565b600061160d6111f7565b60000160089054906101000a900460ff16905090565b60008060007f7fffffffffffffffffffffffffffffff5d576e7357a4501ddfe92f46681b20a08460001c111561166357600060038592509250925061170d565b6000600188888888604051600081526020016040526040516116889493929190612347565b6020604051602081039080840390855afa1580156116aa573d6000803e3d6000fd5b505050602060405103519050600073ffffffffffffffffffffffffffffffffffffffff168173ffffffffffffffffffffffffffffffffffffffff16036116fe57600060016000801b9350935093505061170d565b8060008060001b935093509350505b9450945094915050565b600080fd5b600080fd5b60008115159050919050565b61173681611721565b811461174157600080fd5b50565b6000813590506117538161172d565b92915050565b60006020828403121561176f5761176e611717565b5b600061177d84828501611744565b91505092915050565b600073ffffffffffffffffffffffffffffffffffffffff82169050919050565b60006117b182611786565b9050919050565b6117c1816117a6565b81146117cc57600080fd5b50565b6000813590506117de816117b8565b92915050565b6000819050919050565b6117f7816117e4565b811461180257600080fd5b50565b600081359050611814816117ee565b92915050565b60008060006060848603121561183357611832611717565b5b6000611841868287016117cf565b9350506020611852868287016117cf565b925050604061186386828701611805565b9150509250925092565b611876816117a6565b82525050565b6000602082019050611891600083018461186d565b92915050565b6000602082840312156118ad576118ac611717565b5b60006118bb848285016117cf565b91505092915050565b6118cd816117e4565b82525050565b60006020820190506118e860008301846118c4565b92915050565b60006020828403121561190457611903611717565b5b600061191284828501611805565b91505092915050565b61192481611721565b82525050565b600060208201905061193f600083018461191b565b92915050565b600080fd5b600080fd5b600080fd5b60008083601f84011261196a57611969611945565b5b8235905067ffffffffffffffff8111156119875761198661194a565b5b6020830191508360018202830111156119a3576119a261194f565b5b9250929050565b6000806000806000608086880312156119c6576119c5611717565b5b60006119d4888289016117cf565b95505060206119e588828901611805565b94505060406119f688828901611805565b935050606086013567ffffffffffffffff811115611a1757611a1661171c565b5b611a2388828901611954565b92509250509295509295909350565b60008060408385031215611a4957611a48611717565b5b6000611a57858286016117cf565b9250506020611a6885828601611805565b9150509250929050565b6000819050919050565b611a8581611a72565b8114611a9057600080fd5b50565b600081359050611aa281611a7c565b92915050565b600060208284031215611abe57611abd611717565b5b6000611acc84828501611a93565b91505092915050565b60008083601f840112611aeb57611aea611945565b5b8235905067ffffffffffffffff811115611b0857611b0761194a565b5b602083019150836020820283011115611b2457611b2361194f565b5b9250929050565b60008060208385031215611b4257611b41611717565b5b600083013567ffffffffffffffff811115611b6057611b5f61171c565b5b611b6c85828601611ad5565b92509250509250929050565b6000819050919050565b6000611b9d611b98611b9384611786565b611b78565b611786565b9050919050565b6000611baf82611b82565b9050919050565b6000611bc182611ba4565b9050919050565b611bd181611bb6565b82525050565b6000602082019050611bec6000830184611bc8565b92915050565b6000819050919050565b600067ffffffffffffffff82169050919050565b6000611c2b611c26611c2184611bf2565b611b78565b611bfc565b9050919050565b611c3b81611c10565b82525050565b6000602082019050611c566000830184611c32565b92915050565b6000604082019050611c71600083018561186d565b611c7e60208301846118c4565b9392505050565b600081519050611c948161172d565b92915050565b600060208284031215611cb057611caf611717565b5b6000611cbe84828501611c85565b91505092915050565b600082825260208201905092915050565b7f4272696467653a207769746864726177206661696c6564000000000000000000600082015250565b6000611d0e601783611cc7565b9150611d1982611cd8565b602082019050919050565b60006020820190508181036000830152611d3d81611d01565b9050919050565b7f4272696467653a20706175736564000000000000000000000000000000000000600082015250565b6000611d7a600e83611cc7565b9150611d8582611d44565b602082019050919050565b60006020820190508181036000830152611da981611d6d565b9050919050565b7f4272696467653a20696e76616c696420636861696e0000000000000000000000600082015250565b6000611de6601583611cc7565b9150611df182611db0565b602082019050919050565b60006020820190508181036000830152611e1581611dd9565b9050919050565b7f4272696467653a20696e76616c69642061646472657373000000000000000000600082015250565b6000611e52601783611cc7565b9150611e5d82611e1c565b602082019050919050565b60006020820190508181036000830152611e8181611e45565b9050919050565b60008160601b9050919050565b6000611ea082611e88565b9050919050565b6000611eb282611e95565b9050919050565b611eca611ec5826117a6565b611ea7565b82525050565b6000819050919050565b611eeb611ee6826117e4565b611ed0565b82525050565b6000611efd8286611eb9565b601482019150611f0d8285611eda565b602082019150611f1d8284611eda565b602082019150819050949350505050565b7f4e487b7100000000000000000000000000000000000000000000000000000000600052601160045260246000fd5b6000611f68826117e4565b9150611f73836117e4565b9250828202611f81816117e4565b91508282048414831517611f9857611f97611f2e565b5b5092915050565b7f4e487b7100000000000000000000000000000000000000000000000000000000600052601260045260246000fd5b6000611fd9826117e4565b9150611fe4836117e4565b925082611ff457611ff3611f9f565b5b828204905092915050565b600061200a826117e4565b9150612015836117e4565b925082820390508181111561202d5761202c611f2e565b5b92915050565b7f4272696467653a207472616e73616374696f6e20616c72656164792070726f6360008201527f6573736564000000000000000000000000000000000000000000000000000000602082015250565b600061208f602583611cc7565b915061209a82612033565b604082019050919050565b600060208201905081810360008301526120be81612082565b9050919050565b7f4272696467653a20696e76616c6964207369676e617475726500000000000000600082015250565b60006120fb601983611cc7565b9150612106826120c5565b602082019050919050565b6000602082019050818103600083015261212a816120ee565b9050919050565b61213a81611a72565b82525050565b600060a082019050612155600083018861186d565b612162602083018761186d565b61216f60408301866118c4565b61217c60608301856118c4565b6121896080830184612131565b9695505050505050565b60006060820190506121a8600083018661186d565b6121b5602083018561186d565b6121c260408301846118c4565b949350505050565b7f4272696467653a207472616e73666572206661696c6564000000000000000000600082015250565b6000612200601783611cc7565b915061220b826121ca565b602082019050919050565b6000602082019050818103600083015261222f816121f3565b9050919050565b6000612241826117e4565b915061224c836117e4565b925082820190508082111561226457612263611f2e565b5b92915050565b6000612275826117e4565b91507fffffffffffffffffffffffffffffffffffffffffffffffffffffffffffffffff82036122a7576122a6611f2e565b5b600182019050919050565b7f4e487b7100000000000000000000000000000000000000000000000000000000600052603260045260246000fd5b7f4e487b7100000000000000000000000000000000000000000000000000000000600052602160045260246000fd5b60006020820190506123256000830184612131565b92915050565b600060ff82169050919050565b6123418161232b565b82525050565b600060808201905061235c6000830187612131565b6123696020830186612338565b6123766040830185612131565b6123836060830184612131565b9594505050505056fea2646970667358221220c3e375f02f46dc4a7b85c61e7d34bd745ce189a00fa7b9e4f477cd7d1d7dfe2e64736f6c63430008140033",
  "linkReferences": {},
  "deployedLinkReferences": {}
}