{
  "_format": "hh-sol-artifact-1",
  "contractName": "CADM",
  "sourceName": "contracts/CADM.sol",
  "abi": [
    {
      "inputs": [],
      "stateMutability": "nonpayable",
      "type": "constructor"
    },
    {
      "inputs": [
        {
          "internalType": "address",
          "name": "spender",
          "type": "address"
        },
        {
          "internalType": "uint256",
          "name": "allowance",
          "type": "uint256"
        },
        {
          "internalType": "uint256",
          "name": "needed",
          "type": "uint256"
        }
      ],
      "name": "ERC20InsufficientAllowance",
      "type": "error"
    },
    {
      "inputs": [
        {
          "internalType": "address",
          "name": "sender",
          "type": "address"
        },
        {
          "internalType": "uint256",
          "name": "balance",
          "type": "uint256"
        },
        {
          "internalType": "uint256",
          "name": "needed",
          "type": "uint256"
        }
      ],
      "name": "ERC20InsufficientBalance",
      "type": "error"
    },
    {
      "inputs": [
        {
          "internalType": "address",
          "name": "approver",
          "type": "address"
        }
      ],
      "name": "ERC20InvalidApprover",
      "type": "error"
    },
    {
      "inputs": [
        {
          "internalType": "address",
          "name": "receiver",
          "type": "address"
        }
      ],
      "name": "ERC20InvalidReceiver",
      "type": "error"
    },
    {
      "inputs": [
        {
          "internalType": "address",
          "name": "sender",
          "type": "address"
        }
      ],
      "name": "ERC20InvalidSender",
      "type": "error"
    },
    {
      "inputs": [
        {
          "internalType": "address",
          "name": "spender",
          "type": "address"
        }
      ],
      "name": "ERC20InvalidSpender",
      "type": "error"
    },
    {
      "inputs": [],
      "name": "InvalidInitialization",
      "type": "error"
    },
    {
      "inputs": [],
      "name": "NotInitializing",
      "type": "error"
    },
    {
      "inputs": [
        {
          "internalType": "address",
          "name": "owner",
          "type": "address"
        }
      ],
      "name": "OwnableInvalidOwner",
      "type": "error"
    },
    {
      "inputs": [
        {
          "internalType": "address",
          "name": "account",
          "type": "address"
        }
      ],
      "name": "OwnableUnauthorizedAccount",
      "type": "error"
    },
    {
      "anonymous": false,
      "inputs": [
        {
          "indexed": true,
          "internalType": "address",
          "name": "owner",
          "type": "address"
        },
        {
          "indexed": true,
          "internalType": "address",
          "name": "spender",
          "type": "address"
        },
        {
          "indexed": false,
          "internalType": "uint256",
          "name": "value",
          "type": "uint256"
        }
      ],
      "name": "Approval",
      "type": "event"
    },
    {
      "anonymous": false,
      "inputs": [
        {
          "indexed": false,
          "internalType": "uint64",
          "name": "version",
          "type": "uint64"
        }
      ],
      "name": "Initialized",
      "type": "event"
    },
    {
      "anonymous": false,
      "inputs": [
        {
          "indexed": true,
          "internalType": "address",
          "name": "previousOwner",
          "type": "address"
        },
        {
          "indexed": true,
          "internalType": "address",
          "name": "newOwner",
          "type": "address"
        }
      ],
      "name": "OwnershipTransferred",
      "type": "event"
    },
    {
      "anonymous": false,
      "inputs": [
        {
          "indexed": true,
          "internalType": "address",
          "name": "from",
          "type": "address"
        },
        {
          "indexed": true,
          "internalType": "address",
          "name": "to",
          "type": "address"
        },
        {
          "indexed": false,
          "internalType": "uint256",
          "name": "value",
          "type": "uint256"
        }
      ],
      "name": "Transfer",
      "type": "event"
    },
    {
      "inputs": [],
      "name": "CURRENT_DAY_REWARD",
      "outputs": [
        {
          "internalType": "uint256",
          "name": "",
          "type": "uint256"
        }
      ],
      "stateMutability": "view",
      "type": "function"
    },
    {
      "inputs": [],
      "name": "CURRENT_YEAR_SUPPLY",
      "outputs": [
        {
          "internalType": "uint256",
          "name": "",
          "type": "uint256"
        }
      ],
      "stateMutability": "view",
      "type": "function"
    },
    {
      "inputs": [],
      "name": "DEFAULT_REFERRER",
      "outputs": [
        {
          "internalType": "address",
          "name": "",
          "type": "address"
        }
      ],
      "stateMutability": "view",
      "type": "function"
    },
    {
      "inputs": [],
      "name": "FIRST_HALF_DAYS",
      "outputs": [
        {
          "internalType": "uint256",
          "name": "",
          "type": "uint256"
        }
      ],
      "stateMutability": "view",
      "type": "function"
    },
    {
      "inputs": [],
      "name": "FIRST_YEAR_SUPPLY",
      "outputs": [
        {
          "internalType": "uint256",
          "name": "",
          "type": "uint256"
        }
      ],
      "stateMutability": "view",
      "type": "function"
    },
    {
      "inputs": [],
      "name": "HALF_DAYS",
      "outputs": [
        {
          "internalType": "uint256",
          "name": "",
          "type": "uint256"
        }
      ],
      "stateMutability": "view",
      "type": "function"
    },
    {
      "inputs": [],
      "name": "MINED_DAYS",
      "outputs": [
        {
          "internalType": "uint256",
          "name": "",
          "type": "uint256"
        }
      ],
      "stateMutability": "view",
      "type": "function"
    },
    {
      "inputs": [],
      "name": "REFERRER_PERCENT",
      "outputs": [
        {
          "internalType": "uint256",
          "name": "",
          "type": "uint256"
        }
      ],
      "stateMutability": "view",
      "type": "function"
    },
    {
      "inputs": [],
      "name": "START_DAY",
      "outputs": [
        {
          "internalType": "uint256",
          "name": "",
          "type": "uint256"
        }
      ],
      "stateMutability": "view",
      "type": "function"
    },
    {
      "inputs": [
        {
          "internalType": "address",
          "name": "",
          "type": "address"
        }
      ],
      "name": "addressReward",
      "outputs": [
        {
          "internalType": "uint256",
          "name": "",
          "type": "uint256"
        }
      ],
      "stateMutability": "view",
      "type": "function"
    },
    {
      "inputs": [
        {
          "internalType": "address",
          "name": "owner",
          "type": "address"
        },
        {
          "internalType": "address",
          "name": "spender",
          "type": "address"
        }
      ],
      "name": "allowance",
      "outputs": [
        {
          "internalType": "uint256",
          "name": "",
          "type": "uint256"
        }
      ],
      "stateMutability": "view",
      "type": "function"
    },
    {
      "inputs": [
        {
          "internalType": "address",
          "name": "spender",
          "type": "address"
        },
        {
          "internalType": "uint256",
          "name": "value",
          "type": "uint256"
        }
      ],
      "name": "approve",
      "outputs": [
        {
          "internalType": "bool",
          "name": "",
          "type": "bool"
        }
      ],
      "stateMutability": "nonpayable",
      "type": "function"
    },
    {
      "inputs": [
        {
          "internalType": "address",
          "name": "account",
          "type": "address"
        }
      ],
      "name": "balanceOf",
      "outputs": [
        {
          "internalType": "uint256",
          "name": "",
          "type": "uint256"
        }
      ],
      "stateMutability": "view",
      "type": "function"
    },
    {
      "inputs": [
        {
          "internalType": "address[]",
          "name": "users",
          "type": "address[]"
        }
      ],
      "name": "batchGetBalance",
      "outputs": [
        {
          "internalType": "uint256",
          "name": "",
          "type": "uint256"
        }
      ],
      "stateMutability": "view",
      "type": "function"
    },
    {
      "inputs": [
        {
          "internalType": "uint256",
          "name": "",
          "type": "uint256"
        }
      ],
      "name": "dayClaimed",
      "outputs": [
        {
          "internalType": "uint256",
          "name": "",
          "type": "uint256"
        }
      ],
      "stateMutability": "view",
      "type": "function"
    },
    {
      "inputs": [
        {
          "internalType": "uint256",
          "name": "",
          "type": "uint256"
        },
        {
          "internalType": "bytes32",
          "name": "",
          "type": "bytes32"
        }
      ],
      "name": "dayMachineProcessed",
      "outputs": [
        {
          "internalType": "bool",
          "name": "",
          "type": "bool"
        }
      ],
      "stateMutability": "view",
      "type": "function"
    },
    {
      "inputs": [
        {
          "internalType": "uint256",
          "name": "",
          "type": "uint256"
        }
      ],
      "name": "dayProcessed",
      "outputs": [
        {
          "internalType": "bool",
          "name": "",
          "type": "bool"
        }
      ],
      "stateMutability": "view",
      "type": "function"
    },
    {
      "inputs": [],
      "name": "decimals",
      "outputs": [
        {
          "internalType": "uint8",
          "name": "",
          "type": "uint8"
        }
      ],
      "stateMutability": "view",
      "type": "function"
    },
    {
      "inputs": [
        {
          "internalType": "bytes32",
          "name": "nodeKey",
          "type": "bytes32"
        }
      ],
      "name": "getMachineAddress",
      "outputs": [
        {
          "internalType": "address",
          "name": "",
          "type": "address"
        }
      ],
      "stateMutability": "view",
      "type": "function"
    },
    {
      "inputs": [
        {
          "internalType": "bytes32",
          "name": "nodeKey",
          "type": "bytes32"
        }
      ],
      "name": "getMachineReferrerAddress",
      "outputs": [
        {
          "internalType": "address",
          "name": "",
          "type": "address"
        }
      ],
      "stateMutability": "view",
      "type": "function"
    },
    {
      "inputs": [
        {
          "internalType": "uint256",
          "name": "dailyHours",
          "type": "uint256"
        }
      ],
      "name": "getRewardPerHour",
      "outputs": [
        {
          "internalType": "uint256",
          "name": "",
          "type": "uint256"
        }
      ],
      "stateMutability": "view",
      "type": "function"
    },
    {
      "inputs": [],
      "name": "initialize",
      "outputs": [],
      "stateMutability": "nonpayable",
      "type": "function"
    },
    {
      "inputs": [
        {
          "internalType": "bytes32",
          "name": "",
          "type": "bytes32"
        }
      ],
      "name": "machineReferrer",
      "outputs": [
        {
          "internalType": "bytes32",
          "name": "",
          "type": "bytes32"
        }
      ],
      "stateMutability": "view",
      "type": "function"
    },
    {
      "inputs": [
        {
          "internalType": "bytes32",
          "name": "",
          "type": "bytes32"
        }
      ],
      "name": "machineUser",
      "outputs": [
        {
          "internalType": "bytes32",
          "name": "",
          "type": "bytes32"
        }
      ],
      "stateMutability": "view",
      "type": "function"
    },
    {
      "inputs": [],
      "name": "name",
      "outputs": [
        {
          "internalType": "string",
          "name": "",
          "type": "string"
        }
      ],
      "stateMutability": "view",
      "type": "function"
    },
    {
      "inputs": [],
      "name": "owner",
      "outputs": [
        {
          "internalType": "address",
          "name": "",
          "type": "address"
        }
      ],
      "stateMutability": "view",
      "type": "function"
    },
    {
      "inputs": [
        {
          "internalType": "bytes32",
          "name": "userId",
          "type": "bytes32"
        },
        {
          "internalType": "bytes32",
          "name": "nodeKey",
          "type": "bytes32"
        },
        {
          "internalType": "bytes32",
          "name": "referrer",
          "type": "bytes32"
        }
      ],
      "name": "registerMachine",
      "outputs": [],
      "stateMutability": "nonpayable",
      "type": "function"
    },
    {
      "inputs": [],
      "name": "renounceOwnership",
      "outputs": [],
      "stateMutability": "nonpayable",
      "type": "function"
    },
    {
      "inputs": [
        {
          "internalType": "uint256",
          "name": "amount",
          "type": "uint256"
        }
      ],
      "name": "setCurrentDayReward",
      "outputs": [],
      "stateMutability": "nonpayable",
      "type": "function"
    },
    {
      "inputs": [
        {
          "internalType": "uint256",
          "name": "amount",
          "type": "uint256"
        }
      ],
      "name": "setCurrentYearSupply",
      "outputs": [],
      "stateMutability": "nonpayable",
      "type": "function"
    },
    {
      "inputs": [
        {
          "internalType": "address",
          "name": "addr",
          "type": "address"
        }
      ],
      "name": "setDefaultReferrer",
      "outputs": [],
      "stateMutability": "nonpayable",
      "type": "function"
    },
    {
      "inputs": [
        {
          "internalType": "uint256",
          "name": "val",
          "type": "uint256"
        }
      ],
      "name": "setFirstHalfDays",
      "outputs": [],
      "stateMutability": "nonpayable",
      "type": "function"
    },
    {
      "inputs": [
        {
          "internalType": "uint256",
          "name": "val",
          "type": "uint256"
        }
      ],
      "name": "setHalfDays",
      "outputs": [],
      "stateMutability": "nonpayable",
      "type": "function"
    },
    {
      "inputs": [
        {
          "internalType": "uint256",
          "name": "val",
          "type": "uint256"
        }
      ],
      "name": "setReferrerPercent",
      "outputs": [],
      "stateMutability": "nonpayable",
      "type": "function"
    },
    {
      "inputs": [
        {
          "internalType": "address",
          "name": "addr",
          "type": "address"
        },
        {
          "internalType": "bool",
          "name": "value",
          "type": "bool"
        }
      ],
      "name": "setReporter",
      "outputs": [],
      "stateMutability": "nonpayable",
      "type": "function"
    },
    {
      "inputs": [
        {
          "internalType": "bytes32",
          "name": "userId",
          "type": "bytes32"
        },
        {
          "internalType": "address",
          "name": "addr",
          "type": "address"
        }
      ],
      "name": "setUserAddress",
      "outputs": [],
      "stateMutability": "nonpayable",
      "type": "function"
    },
    {
      "inputs": [
        {
          "internalType": "bytes32[]",
          "name": "nodeKeys",
          "type": "bytes32[]"
        },
        {
          "internalType": "uint256[]",
          "name": "_hours",
          "type": "uint256[]"
        },
        {
          "internalType": "uint256",
          "name": "totalHours",
          "type": "uint256"
        },
        {
          "internalType": "uint256",
          "name": "unixDay",
          "type": "uint256"
        }
      ],
      "name": "submitMinerWorkloads",
      "outputs": [],
      "stateMutability": "nonpayable",
      "type": "function"
    },
    {
      "inputs": [],
      "name": "symbol",
      "outputs": [
        {
          "internalType": "string",
          "name": "",
          "type": "string"
        }
      ],
      "stateMutability": "view",
      "type": "function"
    },
    {
      "inputs": [],
      "name": "totalSupply",
      "outputs": [
        {
          "internalType": "uint256",
          "name": "",
          "type": "uint256"
        }
      ],
      "stateMutability": "view",
      "type": "function"
    },
    {
      "inputs": [
        {
          "internalType": "address",
          "name": "to",
          "type": "address"
        },
        {
          "internalType": "uint256",
          "name": "value",
          "type": "uint256"
        }
      ],
      "name": "transfer",
      "outputs": [
        {
          "internalType": "bool",
          "name": "",
          "type": "bool"
        }
      ],
      "stateMutability": "nonpayable",
      "type": "function"
    },
    {
      "inputs": [
        {
          "internalType": "address",
          "name": "from",
          "type": "address"
        },
        {
          "internalType": "address",
          "name": "to",
          "type": "address"
        },
        {
          "internalType": "uint256",
          "name": "value",
          "type": "uint256"
        }
      ],
      "name": "transferFrom",
      "outputs": [
        {
          "internalType": "bool",
          "name": "",
          "type": "bool"
        }
      ],
      "stateMutability": "nonpayable",
      "type": "function"
    },
    {
      "inputs": [
        {
          "internalType": "address",
          "name": "newOwner",
          "type": "address"
        }
      ],
      "name": "transferOwnership",
      "outputs": [],
      "stateMutability": "nonpayable",
      "type": "function"
    },
    {
      "inputs": [
        {
          "internalType": "bytes32",
          "name": "",
          "type": "bytes32"
        }
      ],
      "name": "userAddress",
      "outputs": [
        {
          "internalType": "address",
          "name": "",
          "type": "address"
        }
      ],
      "stateMutability": "view",
      "type": "function"
    },
    {
      "stateMutability": "payable",
      "type": "receive"
    }
  ],
  "bytecode": "0x60806040523480156200001157600080fd5b50620000226200002860201b60201c565b620001bb565b60006200003a6200013260201b60201c565b90508060000160089054906101000a900460ff161562000086576040517ff92ee8a900000000000000000000000000000000000000000000000000000000815260040160405180910390fd5b67ffffffffffffffff80168160000160009054906101000a900467ffffffffffffffff1667ffffffffffffffff16146200012f5767ffffffffffffffff8160000160006101000a81548167ffffffffffffffff021916908367ffffffffffffffff1602179055507fc7f505b2f371ae2175ee4913f4499e1f2633a7b5936321eed1cdaeb6115181d267ffffffffffffffff6040516200012691906200019e565b60405180910390a15b50565b600080620001456200014e60201b60201c565b90508091505090565b60007ff0c57e16840df040f15088dc2f81fe391c3923bec73e23a9662efc9c229c6a0060001b905090565b600067ffffffffffffffff82169050919050565b620001988162000179565b82525050565b6000602082019050620001b560008301846200018d565b92915050565b613bfc80620001cb6000396000f3fe60806040526004361061025f5760003560e01c8063781e65e311610144578063c03e1581116100b6578063dfebc0721161007a578063dfebc07214610976578063e1bb5133146109b3578063e3024a95146109dc578063eef7c7df14610a07578063f2fde38b14610a32578063fcd8e61a14610a5b57610266565b8063c03e158114610881578063d2c97b03146108be578063daf488b1146108e7578063dcf6e81914610910578063dd62ed3e1461093957610266565b8063826f83e211610108578063826f83e214610737578063889a8758146107745780638da5cb5b146107b157806395d89b41146107dc578063a21182d214610807578063a9059cbb1461084457610266565b8063781e65e3146106665780637d7c1849146106915780637f04b889146106ba5780638129fc1c146106f757806381684af21461070e57610266565b80633d56d9ac116101dd57806366e7e840116101a157806366e7e8401461054457806368b9b95b146105815780636e5d8280146105ac57806370a08231146105e957806370eff19b14610626578063715018a61461064f57610266565b80633d56d9ac1461045b57806344feafee14610486578063460f5068146104b1578063586b1ffb146104dc5780635fb1e75d1461051957610266565b80631f16d0e6116102245780631f16d0e61461036457806323b872dd146103a1578063276f9d5c146103de578063313ce5671461040757806338bd973a1461043257610266565b8062ad40891461026b5780630423d7c21461029457806306fdde03146102d1578063095ea7b3146102fc57806318160ddd1461033957610266565b3661026657005b600080fd5b34801561027757600080fd5b50610292600480360381019061028d9190612a12565b610a86565b005b3480156102a057600080fd5b506102bb60048036038101906102b69190612a9b565b610cf5565b6040516102c89190612ad7565b60405180910390f35b3480156102dd57600080fd5b506102e6610d0c565b6040516102f39190612b82565b60405180910390f35b34801561030857600080fd5b50610323600480360381019061031e9190612c02565b610dad565b6040516103309190612c5d565b60405180910390f35b34801561034557600080fd5b5061034e610dd0565b60405161035b9190612ad7565b60405180910390f35b34801561037057600080fd5b5061038b60048036038101906103869190612c78565b610de8565b6040516103989190612cb4565b60405180910390f35b3480156103ad57600080fd5b506103c860048036038101906103c39190612ccf565b610e3d565b6040516103d59190612c5d565b60405180910390f35b3480156103ea57600080fd5b5061040560048036038101906104009190612a9b565b610e6c565b005b34801561041357600080fd5b5061041c610e7e565b6040516104299190612d3e565b60405180910390f35b34801561043e57600080fd5b5061045960048036038101906104549190612a9b565b610e87565b005b34801561046757600080fd5b50610470610e99565b60405161047d9190612ad7565b60405180910390f35b34801561049257600080fd5b5061049b610e9f565b6040516104a89190612ad7565b60405180910390f35b3480156104bd57600080fd5b506104c6610ea5565b6040516104d39190612ad7565b60405180910390f35b3480156104e857600080fd5b5061050360048036038101906104fe9190612d59565b610eb4565b6040516105109190612ad7565b60405180910390f35b34801561052557600080fd5b5061052e610ecc565b60405161053b9190612ad7565b60405180910390f35b34801561055057600080fd5b5061056b60048036038101906105669190612c78565b610ed2565b6040516105789190612cb4565b60405180910390f35b34801561058d57600080fd5b50610596610f27565b6040516105a39190612ad7565b60405180910390f35b3480156105b857600080fd5b506105d360048036038101906105ce9190612a9b565b610f2d565b6040516105e09190612ad7565b60405180910390f35b3480156105f557600080fd5b50610610600480360381019061060b9190612d59565b610f45565b60405161061d9190612ad7565b60405180910390f35b34801561063257600080fd5b5061064d60048036038101906106489190612a9b565b610f9c565b005b34801561065b57600080fd5b50610664610fae565b005b34801561067257600080fd5b5061067b610fc2565b6040516106889190612cb4565b60405180910390f35b34801561069d57600080fd5b506106b860048036038101906106b39190612e41565b610fe8565b005b3480156106c657600080fd5b506106e160048036038101906106dc9190612a9b565b611142565b6040516106ee9190612c5d565b60405180910390f35b34801561070357600080fd5b5061070c611162565b005b34801561071a57600080fd5b5061073560048036038101906107309190612ee8565b6115ae565b005b34801561074357600080fd5b5061075e60048036038101906107599190612c78565b61174b565b60405161076b9190612f37565b60405180910390f35b34801561078057600080fd5b5061079b60048036038101906107969190612f52565b611763565b6040516107a89190612c5d565b60405180910390f35b3480156107bd57600080fd5b506107c6611792565b6040516107d39190612cb4565b60405180910390f35b3480156107e857600080fd5b506107f16117ca565b6040516107fe9190612b82565b60405180910390f35b34801561081357600080fd5b5061082e60048036038101906108299190612fe8565b61186b565b60405161083b9190612ad7565b60405180910390f35b34801561085057600080fd5b5061086b60048036038101906108669190612c02565b6118d7565b6040516108789190612c5d565b60405180910390f35b34801561088d57600080fd5b506108a860048036038101906108a39190612c78565b6118fa565b6040516108b59190612cb4565b60405180910390f35b3480156108ca57600080fd5b506108e560048036038101906108e09190612a9b565b61192d565b005b3480156108f357600080fd5b5061090e60048036038101906109099190612a9b565b61193f565b005b34801561091c57600080fd5b5061093760048036038101906109329190612d59565b611951565b005b34801561094557600080fd5b50610960600480360381019061095b9190613035565b61199d565b60405161096d9190612ad7565b60405180910390f35b34801561098257600080fd5b5061099d60048036038101906109989190612c78565b611a32565b6040516109aa9190612f37565b60405180910390f35b3480156109bf57600080fd5b506109da60048036038101906109d591906130a1565b611a4a565b005b3480156109e857600080fd5b506109f1611aad565b6040516109fe9190612ad7565b60405180910390f35b348015610a1357600080fd5b50610a1c611ab3565b604051610a299190612ad7565b60405180910390f35b348015610a3e57600080fd5b50610a596004803603810190610a549190612d59565b611ab9565b005b348015610a6757600080fd5b50610a70611b3f565b604051610a7d9190612ad7565b60405180910390f35b600b6000610a92611b45565b73ffffffffffffffffffffffffffffffffffffffff1673ffffffffffffffffffffffffffffffffffffffff16815260200190815260200160002060009054906101000a900460ff16610b19576040517f08c379a0000000000000000000000000000000000000000000000000000000008152600401610b109061312d565b60405180910390fd5b600073ffffffffffffffffffffffffffffffffffffffff16600c600085815260200190815260200160002060009054906101000a900473ffffffffffffffffffffffffffffffffffffffff1673ffffffffffffffffffffffffffffffffffffffff1603610bbb576040517f08c379a0000000000000000000000000000000000000000000000000000000008152600401610bb290613199565b60405180910390fd5b6000801b600d60008481526020019081526020016000205414610c13576040517f08c379a0000000000000000000000000000000000000000000000000000000008152600401610c0a90613205565b60405180910390fd5b82600d6000848152602001908152602001600020819055506000801b8114610cf057600073ffffffffffffffffffffffffffffffffffffffff16600c600083815260200190815260200160002060009054906101000a900473ffffffffffffffffffffffffffffffffffffffff1673ffffffffffffffffffffffffffffffffffffffff1603610cd7576040517f08c379a0000000000000000000000000000000000000000000000000000000008152600401610cce90613271565b60405180910390fd5b80600e6000848152602001908152602001600020819055505b505050565b600081600254610d0591906132ef565b9050919050565b60606000610d18611b4d565b9050806003018054610d299061334f565b80601f0160208091040260200160405190810160405280929190818152602001828054610d559061334f565b8015610da25780601f10610d7757610100808354040283529160200191610da2565b820191906000526020600020905b815481529060010190602001808311610d8557829003601f168201915b505050505091505090565b600080610db8611b45565b9050610dc5818585611b75565b600191505092915050565b600080610ddb611b4d565b9050806002015491505090565b600080600e6000848152602001908152602001600020549050600c600082815260200190815260200160002060009054906101000a900473ffffffffffffffffffffffffffffffffffffffff16915050919050565b600080610e48611b45565b9050610e55858285611b87565b610e60858585611c1c565b60019150509392505050565b610e74611d10565b8060048190555050565b60006012905090565b610e8f611d10565b8060038190555050565b60025481565b60055481565b6a422ca8b0a00a425000000081565b600a6020528060005260406000206000915090505481565b60075481565b600080600d6000848152602001908152602001600020549050600c600082815260200190815260200160002060009054906101000a900473ffffffffffffffffffffffffffffffffffffffff16915050919050565b60015481565b600f6020528060005260406000206000915090505481565b600080610f50611b4d565b90508060000160008473ffffffffffffffffffffffffffffffffffffffff1673ffffffffffffffffffffffffffffffffffffffff16815260200190815260200160002054915050919050565b610fa4611d10565b8060028190555050565b610fb6611d10565b610fc06000611d97565b565b600660009054906101000a900473ffffffffffffffffffffffffffffffffffffffff1681565b600b6000610ff4611b45565b73ffffffffffffffffffffffffffffffffffffffff1673ffffffffffffffffffffffffffffffffffffffff16815260200190815260200160002060009054906101000a900460ff1661107b576040517f08c379a00000000000000000000000000000000000000000000000000000000081526004016110729061312d565b60405180910390fd5b8383905086869050146110c3576040517f08c379a00000000000000000000000000000000000000000000000000000000081526004016110ba906133cc565b60405180910390fd5b6110cc81611e6e565b60006110d783610cf5565b905060005b87879050811015611138576111258888838181106110fd576110fc6133ec565b5b90506020020135878784818110611117576111166133ec565b5b905060200201358585611f7b565b80806111309061341b565b9150506110dc565b5050505050505050565b60086020528060005260406000206000915054906101000a900460ff1681565b600061116c612297565b905060008160000160089054906101000a900460ff1615905060008260000160009054906101000a900467ffffffffffffffff1690506000808267ffffffffffffffff161480156111ba5750825b9050600060018367ffffffffffffffff161480156111ef575060003073ffffffffffffffffffffffffffffffffffffffff163b145b9050811580156111fd575080155b15611234576040517ff92ee8a900000000000000000000000000000000000000000000000000000000815260040160405180910390fd5b60018560000160006101000a81548167ffffffffffffffff021916908367ffffffffffffffff16021790555083156112845760018560000160086101000a81548160ff0219169083151502179055505b6112f86040518060400160405280600881526020017f434144204d696e650000000000000000000000000000000000000000000000008152506040518060400160405280600481526020017f4341444d000000000000000000000000000000000000000000000000000000008152506122ab565b611308611303611b45565b6122c1565b6a422ca8b0a00a4250000000600181905550620151804261132991906132ef565b60008190555061016d6003819055506102da60048190555061012c60078190555061016d60015461135a91906132ef565b6002819055506001600b600061136e611b45565b73ffffffffffffffffffffffffffffffffffffffff1673ffffffffffffffffffffffffffffffffffffffff16815260200190815260200160002060006101000a81548160ff0219169083151502179055506113c7611b45565b600660006101000a81548173ffffffffffffffffffffffffffffffffffffffff021916908373ffffffffffffffffffffffffffffffffffffffff1602179055506001600b60007365c150b7ef3b1adbb9cb2b8041c892b15edde05a73ffffffffffffffffffffffffffffffffffffffff1673ffffffffffffffffffffffffffffffffffffffff16815260200190815260200160002060006101000a81548160ff0219169083151502179055506001600b600073d4a61ae7d18d0d15c6bdbfbb48b0bbc25fd2f59773ffffffffffffffffffffffffffffffffffffffff1673ffffffffffffffffffffffffffffffffffffffff16815260200190815260200160002060006101000a81548160ff0219169083151502179055506001600b600073c74236efde6979a870f6a73ec8c6adedf5fea5e773ffffffffffffffffffffffffffffffffffffffff1673ffffffffffffffffffffffffffffffffffffffff16815260200190815260200160002060006101000a81548160ff02191690831515021790555083156115a75760008560000160086101000a81548160ff0219169083151502179055507fc7f505b2f371ae2175ee4913f4499e1f2633a7b5936321eed1cdaeb6115181d2600160405161159e91906134bc565b60405180910390a15b5050505050565b600b60006115ba611b45565b73ffffffffffffffffffffffffffffffffffffffff1673ffffffffffffffffffffffffffffffffffffffff16815260200190815260200160002060009054906101000a900460ff16611641576040517f08c379a00000000000000000000000000000000000000000000000000000000081526004016116389061312d565b60405180910390fd5b600073ffffffffffffffffffffffffffffffffffffffff168173ffffffffffffffffffffffffffffffffffffffff16036116b0576040517f08c379a00000000000000000000000000000000000000000000000000000000081526004016116a790613523565b60405180910390fd5b6000801b82036116f5576040517f08c379a00000000000000000000000000000000000000000000000000000000081526004016116ec9061358f565b60405180910390fd5b80600c600084815260200190815260200160002060006101000a81548173ffffffffffffffffffffffffffffffffffffffff021916908373ffffffffffffffffffffffffffffffffffffffff1602179055505050565b600e6020528060005260406000206000915090505481565b60096020528160005260406000206020528060005260406000206000915091509054906101000a900460ff1681565b60008061179d6122d5565b90508060000160009054906101000a900473ffffffffffffffffffffffffffffffffffffffff1691505090565b606060006117d6611b4d565b90508060040180546117e79061334f565b80601f01602080910402602001604051908101604052809291908181526020018280546118139061334f565b80156118605780601f1061183557610100808354040283529160200191611860565b820191906000526020600020905b81548152906001019060200180831161184357829003601f168201915b505050505091505090565b60008060005b848490508110156118cc576118ac858583818110611892576118916133ec565b5b90506020020160208101906118a79190612d59565b610f45565b826118b791906135af565b915080806118c49061341b565b915050611871565b508091505092915050565b6000806118e2611b45565b90506118ef818585611c1c565b600191505092915050565b600c6020528060005260406000206000915054906101000a900473ffffffffffffffffffffffffffffffffffffffff1681565b611935611d10565b8060018190555050565b611947611d10565b8060078190555050565b611959611d10565b80600660006101000a81548173ffffffffffffffffffffffffffffffffffffffff021916908373ffffffffffffffffffffffffffffffffffffffff16021790555050565b6000806119a8611b4d565b90508060010160008573ffffffffffffffffffffffffffffffffffffffff1673ffffffffffffffffffffffffffffffffffffffff16815260200190815260200160002060008473ffffffffffffffffffffffffffffffffffffffff1673ffffffffffffffffffffffffffffffffffffffff1681526020019081526020016000205491505092915050565b600d6020528060005260406000206000915090505481565b611a52611d10565b80600b60008473ffffffffffffffffffffffffffffffffffffffff1673ffffffffffffffffffffffffffffffffffffffff16815260200190815260200160002060006101000a81548160ff0219169083151502179055505050565b60045481565b60035481565b611ac1611d10565b600073ffffffffffffffffffffffffffffffffffffffff168173ffffffffffffffffffffffffffffffffffffffff1603611b335760006040517f1e4fbdf7000000000000000000000000000000000000000000000000000000008152600401611b2a9190612cb4565b60405180910390fd5b611b3c81611d97565b50565b60005481565b600033905090565b60007f52c63247e1f47db19d5ce0460030c497f067ca4cebf71ba98eeadabe20bace00905090565b611b8283838360016122fd565b505050565b6000611b93848461199d565b90507fffffffffffffffffffffffffffffffffffffffffffffffffffffffffffffffff811015611c165781811015611c06578281836040517ffb8f41b2000000000000000000000000000000000000000000000000000000008152600401611bfd939291906135e3565b60405180910390fd5b611c15848484840360006122fd565b5b50505050565b600073ffffffffffffffffffffffffffffffffffffffff168373ffffffffffffffffffffffffffffffffffffffff1603611c8e5760006040517f96c6fd1e000000000000000000000000000000000000000000000000000000008152600401611c859190612cb4565b60405180910390fd5b600073ffffffffffffffffffffffffffffffffffffffff168273ffffffffffffffffffffffffffffffffffffffff1603611d005760006040517fec442f05000000000000000000000000000000000000000000000000000000008152600401611cf79190612cb4565b60405180910390fd5b611d0b8383836124e3565b505050565b611d18611b45565b73ffffffffffffffffffffffffffffffffffffffff16611d36611792565b73ffffffffffffffffffffffffffffffffffffffff1614611d9557611d59611b45565b6040517f118cdaa7000000000000000000000000000000000000000000000000000000008152600401611d8c9190612cb4565b60405180910390fd5b565b6000611da16122d5565b905060008160000160009054906101000a900473ffffffffffffffffffffffffffffffffffffffff169050828260000160006101000a81548173ffffffffffffffffffffffffffffffffffffffff021916908373ffffffffffffffffffffffffffffffffffffffff1602179055508273ffffffffffffffffffffffffffffffffffffffff168173ffffffffffffffffffffffffffffffffffffffff167f8be0079c531659141344cd1fd0a4f28419497f9722a3daafe3b4186f6b6457e060405160405180910390a3505050565b600054811015611eb3576040517f08c379a0000000000000000000000000000000000000000000000000000000008152600401611eaa90613666565b60405180910390fd5b6008600082815260200190815260200160002060009054906101000a900460ff16611f785760016008600083815260200190815260200160002060006101000a81548160ff02191690831515021790555060056000815480929190611f179061341b565b919050555060035460055410611f78576000600454600354600554611f3c9190613686565b611f4691906136ba565b03611f77576002600154611f5a91906132ef565b60018190555061016d600154611f7091906132ef565b6002819055505b5b50565b60096000838152602001908152602001600020600085815260200190815260200160002060009054906101000a900460ff1615611fed576040517f08c379a0000000000000000000000000000000000000000000000000000000008152600401611fe490613737565b60405180910390fd5b600160096000848152602001908152602001600020600086815260200190815260200160002060006101000a81548160ff0219169083151502179055506000600d60008681526020019081526020016000205490506000801b8103612087576040517f08c379a000000000000000000000000000000000000000000000000000000000815260040161207e906137a3565b60405180910390fd5b6000828561209591906137c3565b905080600f600086815260200190815260200160002060008282546120ba91906135af565b92505081905550600254600f6000868152602001908152602001600020541115612119576040517f08c379a000000000000000000000000000000000000000000000000000000000815260040161211090613851565b60405180910390fd5b60006127106007548361212c91906137c3565b61213691906132ef565b905080826121449190613686565b9150600061215188610ed2565b9050600061215e89610de8565b9050600073ffffffffffffffffffffffffffffffffffffffff168173ffffffffffffffffffffffffffffffffffffffff16036121ba57600660009054906101000a900473ffffffffffffffffffffffffffffffffffffffff1690505b83600a60008473ffffffffffffffffffffffffffffffffffffffff1673ffffffffffffffffffffffffffffffffffffffff168152602001908152602001600020600082825461220991906135af565b9250508190555082600a60008373ffffffffffffffffffffffffffffffffffffffff1673ffffffffffffffffffffffffffffffffffffffff168152602001908152602001600020600082825461225f91906135af565b925050819055506122708184612722565b61227a8285612722565b612283816127a4565b61228c826127a4565b505050505050505050565b6000806122a2612884565b90508091505090565b6122b36128af565b6122bd82826128ef565b5050565b6122c96128af565b6122d28161292c565b50565b60007f9016d09d72d40fdae2fd8ceac6b6234c7706214fd39c1cd1e609a0528c199300905090565b6000612307611b4d565b9050600073ffffffffffffffffffffffffffffffffffffffff168573ffffffffffffffffffffffffffffffffffffffff160361237b5760006040517fe602df050000000000000000000000000000000000000000000000000000000081526004016123729190612cb4565b60405180910390fd5b600073ffffffffffffffffffffffffffffffffffffffff168473ffffffffffffffffffffffffffffffffffffffff16036123ed5760006040517f94280d620000000000000000000000000000000000000000000000000000000081526004016123e49190612cb4565b60405180910390fd5b828160010160008773ffffffffffffffffffffffffffffffffffffffff1673ffffffffffffffffffffffffffffffffffffffff16815260200190815260200160002060008673ffffffffffffffffffffffffffffffffffffffff1673ffffffffffffffffffffffffffffffffffffffff1681526020019081526020016000208190555081156124dc578373ffffffffffffffffffffffffffffffffffffffff168573ffffffffffffffffffffffffffffffffffffffff167f8c5be1e5ebec7d5bd14f71427d1e84f3dd0314c0f7b2291e5b200ac8c7c3b925856040516124d39190612ad7565b60405180910390a35b5050505050565b60006124ed611b4d565b9050600073ffffffffffffffffffffffffffffffffffffffff168473ffffffffffffffffffffffffffffffffffffffff1603612543578181600201600082825461253791906135af565b9250508190555061261c565b60008160000160008673ffffffffffffffffffffffffffffffffffffffff1673ffffffffffffffffffffffffffffffffffffffff168152602001908152602001600020549050828110156125d2578481846040517fe450d38c0000000000000000000000000000000000000000000000000000000081526004016125c9939291906135e3565b60405180910390fd5b8281038260000160008773ffffffffffffffffffffffffffffffffffffffff1673ffffffffffffffffffffffffffffffffffffffff16815260200190815260200160002081905550505b600073ffffffffffffffffffffffffffffffffffffffff168373ffffffffffffffffffffffffffffffffffffffff1603612667578181600201600082825403925050819055506126b7565b818160000160008573ffffffffffffffffffffffffffffffffffffffff1673ffffffffffffffffffffffffffffffffffffffff168152602001908152602001600020600082825401925050819055505b8273ffffffffffffffffffffffffffffffffffffffff168473ffffffffffffffffffffffffffffffffffffffff167fddf252ad1be2c89b69c2b068fc378daa952ba7f163c4a11628f55a4df523b3ef846040516127149190612ad7565b60405180910390a350505050565b600073ffffffffffffffffffffffffffffffffffffffff168273ffffffffffffffffffffffffffffffffffffffff16036127945760006040517fec442f0500000000000000000000000000000000000000000000000000000000815260040161278b9190612cb4565b60405180910390fd5b6127a0600083836124e3565b5050565b67016345785d8a00008173ffffffffffffffffffffffffffffffffffffffff163110156128815760008173ffffffffffffffffffffffffffffffffffffffff1667016345785d8a00006040516127f9906138a2565b60006040518083038185875af1925050503d8060008114612836576040519150601f19603f3d011682016040523d82523d6000602084013e61283b565b606091505b505090508061287f576040517f08c379a000000000000000000000000000000000000000000000000000000000815260040161287690613903565b60405180910390fd5b505b50565b60007ff0c57e16840df040f15088dc2f81fe391c3923bec73e23a9662efc9c229c6a0060001b905090565b6128b76129b2565b6128ed576040517fd7e6bcf800000000000000000000000000000000000000000000000000000000815260040160405180910390fd5b565b6128f76128af565b6000612901611b4d565b9050828160030190816129149190613af4565b50818160040190816129269190613af4565b50505050565b6129346128af565b600073ffffffffffffffffffffffffffffffffffffffff168173ffffffffffffffffffffffffffffffffffffffff16036129a65760006040517f1e4fbdf700000000000000000000000000000000000000000000000000000000815260040161299d9190612cb4565b60405180910390fd5b6129af81611d97565b50565b60006129bc612297565b60000160089054906101000a900460ff16905090565b600080fd5b600080fd5b6000819050919050565b6129ef816129dc565b81146129fa57600080fd5b50565b600081359050612a0c816129e6565b92915050565b600080600060608486031215612a2b57612a2a6129d2565b5b6000612a39868287016129fd565b9350506020612a4a868287016129fd565b9250506040612a5b868287016129fd565b9150509250925092565b6000819050919050565b612a7881612a65565b8114612a8357600080fd5b50565b600081359050612a9581612a6f565b92915050565b600060208284031215612ab157612ab06129d2565b5b6000612abf84828501612a86565b91505092915050565b612ad181612a65565b82525050565b6000602082019050612aec6000830184612ac8565b92915050565b600081519050919050565b600082825260208201905092915050565b60005b83811015612b2c578082015181840152602081019050612b11565b60008484015250505050565b6000601f19601f8301169050919050565b6000612b5482612af2565b612b5e8185612afd565b9350612b6e818560208601612b0e565b612b7781612b38565b840191505092915050565b60006020820190508181036000830152612b9c8184612b49565b905092915050565b600073ffffffffffffffffffffffffffffffffffffffff82169050919050565b6000612bcf82612ba4565b9050919050565b612bdf81612bc4565b8114612bea57600080fd5b50565b600081359050612bfc81612bd6565b92915050565b60008060408385031215612c1957612c186129d2565b5b6000612c2785828601612bed565b9250506020612c3885828601612a86565b9150509250929050565b60008115159050919050565b612c5781612c42565b82525050565b6000602082019050612c726000830184612c4e565b92915050565b600060208284031215612c8e57612c8d6129d2565b5b6000612c9c848285016129fd565b91505092915050565b612cae81612bc4565b82525050565b6000602082019050612cc96000830184612ca5565b92915050565b600080600060608486031215612ce857612ce76129d2565b5b6000612cf686828701612bed565b9350506020612d0786828701612bed565b9250506040612d1886828701612a86565b9150509250925092565b600060ff82169050919050565b612d3881612d22565b82525050565b6000602082019050612d536000830184612d2f565b92915050565b600060208284031215612d6f57612d6e6129d2565b5b6000612d7d84828501612bed565b91505092915050565b600080fd5b600080fd5b600080fd5b60008083601f840112612dab57612daa612d86565b5b8235905067ffffffffffffffff811115612dc857612dc7612d8b565b5b602083019150836020820283011115612de457612de3612d90565b5b9250929050565b60008083601f840112612e0157612e00612d86565b5b8235905067ffffffffffffffff811115612e1e57612e1d612d8b565b5b602083019150836020820283011115612e3a57612e39612d90565b5b9250929050565b60008060008060008060808789031215612e5e57612e5d6129d2565b5b600087013567ffffffffffffffff811115612e7c57612e7b6129d7565b5b612e8889828a01612d95565b9650965050602087013567ffffffffffffffff811115612eab57612eaa6129d7565b5b612eb789828a01612deb565b94509450506040612eca89828a01612a86565b9250506060612edb89828a01612a86565b9150509295509295509295565b60008060408385031215612eff57612efe6129d2565b5b6000612f0d858286016129fd565b9250506020612f1e85828601612bed565b9150509250929050565b612f31816129dc565b82525050565b6000602082019050612f4c6000830184612f28565b92915050565b60008060408385031215612f6957612f686129d2565b5b6000612f7785828601612a86565b9250506020612f88858286016129fd565b9150509250929050565b60008083601f840112612fa857612fa7612d86565b5b8235905067ffffffffffffffff811115612fc557612fc4612d8b565b5b602083019150836020820283011115612fe157612fe0612d90565b5b9250929050565b60008060208385031215612fff57612ffe6129d2565b5b600083013567ffffffffffffffff81111561301d5761301c6129d7565b5b61302985828601612f92565b92509250509250929050565b6000806040838503121561304c5761304b6129d2565b5b600061305a85828601612bed565b925050602061306b85828601612bed565b9150509250929050565b61307e81612c42565b811461308957600080fd5b50565b60008135905061309b81613075565b92915050565b600080604083850312156130b8576130b76129d2565b5b60006130c685828601612bed565b92505060206130d78582860161308c565b9150509250929050565b7f4e6f742061207265706f72746572000000000000000000000000000000000000600082015250565b6000613117600e83612afd565b9150613122826130e1565b602082019050919050565b600060208201905081810360008301526131468161310a565b9050919050565b7f55736572206e6f74207265676973746572656400000000000000000000000000600082015250565b6000613183601383612afd565b915061318e8261314d565b602082019050919050565b600060208201905081810360008301526131b281613176565b9050919050565b7f4d616368696e6520616c72656164792072656769737465726564000000000000600082015250565b60006131ef601a83612afd565b91506131fa826131b9565b602082019050919050565b6000602082019050818103600083015261321e816131e2565b9050919050565b7f5265666572726572206e6f742072656769737465726564000000000000000000600082015250565b600061325b601783612afd565b915061326682613225565b602082019050919050565b6000602082019050818103600083015261328a8161324e565b9050919050565b7f4e487b7100000000000000000000000000000000000000000000000000000000600052601260045260246000fd5b7f4e487b7100000000000000000000000000000000000000000000000000000000600052601160045260246000fd5b60006132fa82612a65565b915061330583612a65565b92508261331557613314613291565b5b828204905092915050565b7f4e487b7100000000000000000000000000000000000000000000000000000000600052602260045260246000fd5b6000600282049050600182168061336757607f821691505b60208210810361337a57613379613320565b5b50919050565b7f417272617973206c656e677468206d69736d6174636800000000000000000000600082015250565b60006133b6601683612afd565b91506133c182613380565b602082019050919050565b600060208201905081810360008301526133e5816133a9565b9050919050565b7f4e487b7100000000000000000000000000000000000000000000000000000000600052603260045260246000fd5b600061342682612a65565b91507fffffffffffffffffffffffffffffffffffffffffffffffffffffffffffffffff8203613458576134576132c0565b5b600182019050919050565b6000819050919050565b600067ffffffffffffffff82169050919050565b6000819050919050565b60006134a66134a161349c84613463565b613481565b61346d565b9050919050565b6134b68161348b565b82525050565b60006020820190506134d160008301846134ad565b92915050565b7f496e76616c696420616464726573730000000000000000000000000000000000600082015250565b600061350d600f83612afd565b9150613518826134d7565b602082019050919050565b6000602082019050818103600083015261353c81613500565b9050919050565b7f496e76616c696420757365722069640000000000000000000000000000000000600082015250565b6000613579600f83612afd565b915061358482613543565b602082019050919050565b600060208201905081810360008301526135a88161356c565b9050919050565b60006135ba82612a65565b91506135c583612a65565b92508282019050808211156135dd576135dc6132c0565b5b92915050565b60006060820190506135f86000830186612ca5565b6136056020830185612ac8565b6136126040830184612ac8565b949350505050565b7f496e76616c696420646179000000000000000000000000000000000000000000600082015250565b6000613650600b83612afd565b915061365b8261361a565b602082019050919050565b6000602082019050818103600083015261367f81613643565b9050919050565b600061369182612a65565b915061369c83612a65565b92508282039050818111156136b4576136b36132c0565b5b92915050565b60006136c582612a65565b91506136d083612a65565b9250826136e0576136df613291565b5b828206905092915050565b7f4d616368696e6520616c72656164792070726f63657373656400000000000000600082015250565b6000613721601983612afd565b915061372c826136eb565b602082019050919050565b6000602082019050818103600083015261375081613714565b9050919050565b7f4d616368696e65206e6f74207265676973746572656400000000000000000000600082015250565b600061378d601683612afd565b915061379882613757565b602082019050919050565b600060208201905081810360008301526137bc81613780565b9050919050565b60006137ce82612a65565b91506137d983612a65565b92508282026137e781612a65565b915082820484148315176137fe576137fd6132c0565b5b5092915050565b7f44617920726577617264206f766572666c6f7700000000000000000000000000600082015250565b600061383b601383612afd565b915061384682613805565b602082019050919050565b6000602082019050818103600083015261386a8161382e565b9050919050565b600081905092915050565b50565b600061388c600083613871565b91506138978261387c565b600082019050919050565b60006138ad8261387f565b9150819050919050565b7f455448207472616e73666572206661696c656400000000000000000000000000600082015250565b60006138ed601383612afd565b91506138f8826138b7565b602082019050919050565b6000602082019050818103600083015261391c816138e0565b9050919050565b7f4e487b7100000000000000000000000000000000000000000000000000000000600052604160045260246000fd5b60008190508160005260206000209050919050565b60006020601f8301049050919050565b600082821b905092915050565b6000600883026139b47fffffffffffffffffffffffffffffffffffffffffffffffffffffffffffffffff82613977565b6139be8683613977565b95508019841693508086168417925050509392505050565b60006139f16139ec6139e784612a65565b613481565b612a65565b9050919050565b6000819050919050565b613a0b836139d6565b613a1f613a17826139f8565b848454613984565b825550505050565b600090565b613a34613a27565b613a3f818484613a02565b505050565b5b81811015613a6357613a58600082613a2c565b600181019050613a45565b5050565b601f821115613aa857613a7981613952565b613a8284613967565b81016020851015613a91578190505b613aa5613a9d85613967565b830182613a44565b50505b505050565b600082821c905092915050565b6000613acb60001984600802613aad565b1980831691505092915050565b6000613ae48383613aba565b9150826002028217905092915050565b613afd82612af2565b67ffffffffffffffff811115613b1657613b15613923565b5b613b20825461334f565b613b2b828285613a67565b600060209050601f831160018114613b5e5760008415613b4c578287015190505b613b568582613ad8565b865550613bbe565b601f198416613b6c86613952565b60005b82811015613b9457848901518255600182019150602085019450602081019050613b6f565b86831015613bb15784890151613bad601f891682613aba565b8355505b6001600288020188555050505b50505050505056fea2646970667358221220e25256f2ad8637cf588d1fb4e784913a461af00b52085b38f5ae1b3281ce602164736f6c63430008140033",
  "linkReferences": {},
  "deployedLinkReferences": {}
}