{
  "_format": "hh-sol-artifact-1",
  "contractName": "Rebate",
  "sourceName": "contracts/rebate.sol",
  "abi": [
    {
      "inputs": [],
      "stateMutability": "nonpayable",
      "type": "constructor"
    },
    {
      "inputs": [],
      "name": "ECDSAInvalidSignature",
      "type": "error"
    },
    {
      "inputs": [
        {
          "internalType": "uint256",
          "name": "length",
          "type": "uint256"
        }
      ],
      "name": "ECDSAInvalidSignatureLength",
      "type": "error"
    },
    {
      "inputs": [
        {
          "internalType": "bytes32",
          "name": "s",
          "type": "bytes32"
        }
      ],
      "name": "ECDSAInvalidSignatureS",
      "type": "error"
    },
    {
      "inputs": [],
      "name": "InvalidInitialization",
      "type": "error"
    },
    {
      "inputs": [],
      "name": "NotInitializing",
      "type": "error"
    },
    {
      "inputs": [
        {
          "internalType": "address",
          "name": "owner",
          "type": "address"
        }
      ],
      "name": "OwnableInvalidOwner",
      "type": "error"
    },
    {
      "inputs": [
        {
          "internalType": "address",
          "name": "account",
          "type": "address"
        }
      ],
      "name": "OwnableUnauthorizedAccount",
      "type": "error"
    },
    {
      "anonymous": false,
      "inputs": [
        {
          "indexed": true,
          "internalType": "address",
          "name": "toAddress",
          "type": "address"
        },
        {
          "indexed": false,
          "internalType": "uint256",
          "name": "amount",
          "type": "uint256"
        },
        {
          "indexed": false,
          "internalType": "uint256",
          "name": "nonce",
          "type": "uint256"
        },
        {
          "indexed": false,
          "internalType": "bytes32",
          "name": "msgHash",
          "type": "bytes32"
        }
      ],
      "name": "Claim",
      "type": "event"
    },
    {
      "anonymous": false,
      "inputs": [
        {
          "indexed": false,
          "internalType": "uint64",
          "name": "version",
          "type": "uint64"
        }
      ],
      "name": "Initialized",
      "type": "event"
    },
    {
      "anonymous": false,
      "inputs": [
        {
          "indexed": true,
          "internalType": "address",
          "name": "previousOwner",
          "type": "address"
        },
        {
          "indexed": true,
          "internalType": "address",
          "name": "newOwner",
          "type": "address"
        }
      ],
      "name": "OwnershipTransferred",
      "type": "event"
    },
    {
      "inputs": [
        {
          "internalType": "address",
          "name": "toAddress",
          "type": "address"
        },
        {
          "internalType": "uint256",
          "name": "amount",
          "type": "uint256"
        },
        {
          "internalType": "uint256",
          "name": "nonce",
          "type": "uint256"
        },
        {
          "internalType": "bytes",
          "name": "signature",
          "type": "bytes"
        }
      ],
      "name": "claim",
      "outputs": [],
      "stateMutability": "nonpayable",
      "type": "function"
    },
    {
      "inputs": [
        {
          "internalType": "uint256",
          "name": "amount",
          "type": "uint256"
        }
      ],
      "name": "emergencyWithdraw",
      "outputs": [],
      "stateMutability": "nonpayable",
      "type": "function"
    },
    {
      "inputs": [
        {
          "internalType": "address",
          "name": "_token",
          "type": "address"
        },
        {
          "internalType": "address",
          "name": "_signer",
          "type": "address"
        }
      ],
      "name": "initialize",
      "outputs": [],
      "stateMutability": "nonpayable",
      "type": "function"
    },
    {
      "inputs": [],
      "name": "owner",
      "outputs": [
        {
          "internalType": "address",
          "name": "",
          "type": "address"
        }
      ],
      "stateMutability": "view",
      "type": "function"
    },
    {
      "inputs": [],
      "name": "paused",
      "outputs": [
        {
          "internalType": "bool",
          "name": "",
          "type": "bool"
        }
      ],
      "stateMutability": "view",
      "type": "function"
    },
    {
      "inputs": [
        {
          "internalType": "bytes32",
          "name": "",
          "type": "bytes32"
        }
      ],
      "name": "processedClaimTxs",
      "outputs": [
        {
          "internalType": "bool",
          "name": "",
          "type": "bool"
        }
      ],
      "stateMutability": "view",
      "type": "function"
    },
    {
      "inputs": [],
      "name": "renounceOwnership",
      "outputs": [],
      "stateMutability": "nonpayable",
      "type": "function"
    },
    {
      "inputs": [
        {
          "internalType": "bool",
          "name": "_paused",
          "type": "bool"
        }
      ],
      "name": "setPaused",
      "outputs": [],
      "stateMutability": "nonpayable",
      "type": "function"
    },
    {
      "inputs": [
        {
          "internalType": "address",
          "name": "_signer",
          "type": "address"
        }
      ],
      "name": "setSigner",
      "outputs": [],
      "stateMutability": "nonpayable",
      "type": "function"
    },
    {
      "inputs": [],
      "name": "signer",
      "outputs": [
        {
          "internalType": "address",
          "name": "",
          "type": "address"
        }
      ],
      "stateMutability": "view",
      "type": "function"
    },
    {
      "inputs": [],
      "name": "token",
      "outputs": [
        {
          "internalType": "contract IERC20",
          "name": "",
          "type": "address"
        }
      ],
      "stateMutability": "view",
      "type": "function"
    },
    {
      "inputs": [
        {
          "internalType": "address",
          "name": "newOwner",
          "type": "address"
        }
      ],
      "name": "transferOwnership",
      "outputs": [],
      "stateMutability": "nonpayable",
      "type": "function"
    }
  ],
  "bytecode": "0x60806040523480156200001157600080fd5b50620000226200002860201b60201c565b620001bb565b60006200003a6200013260201b60201c565b90508060000160089054906101000a900460ff161562000086576040517ff92ee8a900000000000000000000000000000000000000000000000000000000815260040160405180910390fd5b67ffffffffffffffff80168160000160009054906101000a900467ffffffffffffffff1667ffffffffffffffff16146200012f5767ffffffffffffffff8160000160006101000a81548167ffffffffffffffff021916908367ffffffffffffffff1602179055507fc7f505b2f371ae2175ee4913f4499e1f2633a7b5936321eed1cdaeb6115181d267ffffffffffffffff6040516200012691906200019e565b60405180910390a15b50565b600080620001456200014e60201b60201c565b90508091505090565b60007ff0c57e16840df040f15088dc2f81fe391c3923bec73e23a9662efc9c229c6a0060001b905090565b600067ffffffffffffffff82169050919050565b620001988162000179565b82525050565b6000602082019050620001b560008301846200018d565b92915050565b6118cc80620001cb6000396000f3fe608060405234801561001057600080fd5b50600436106100b45760003560e01c80636093c516116100715780636093c516146101655780636c19e78314610195578063715018a6146101b15780638da5cb5b146101bb578063f2fde38b146101d9578063fc0c546a146101f5576100b4565b806316c38b3c146100b9578063238ac933146100d55780632ada8a32146100f3578063485cc9551461010f5780635312ea8e1461012b5780635c975abb14610147575b600080fd5b6100d360048036038101906100ce9190611034565b610213565b005b6100dd610238565b6040516100ea91906110a2565b60405180910390f35b61010d60048036038101906101089190611184565b61025e565b005b6101296004803603810190610124919061120c565b6105b5565b005b6101456004803603810190610140919061124c565b6107e7565b005b61014f6108d6565b60405161015c9190611288565b60405180910390f35b61017f600480360381019061017a91906112d9565b6108e9565b60405161018c9190611288565b60405180910390f35b6101af60048036038101906101aa9190611306565b610909565b005b6101b9610955565b005b6101c3610969565b6040516101d091906110a2565b60405180910390f35b6101f360048036038101906101ee9190611306565b6109a1565b005b6101fd610a27565b60405161020a9190611392565b60405180910390f35b61021b610a4b565b80600060146101000a81548160ff02191690831515021790555050565b600160009054906101000a900473ffffffffffffffffffffffffffffffffffffffff1681565b600060149054906101000a900460ff16156102ae576040517f08c379a00000000000000000000000000000000000000000000000000000000081526004016102a59061140a565b60405180910390fd5b600073ffffffffffffffffffffffffffffffffffffffff168573ffffffffffffffffffffffffffffffffffffffff160361031d576040517f08c379a000000000000000000000000000000000000000000000000000000000815260040161031490611476565b60405180910390fd5b6000858585604051602001610334939291906114ff565b604051602081830303815290604052805190602001209050600061039c8285858080601f016020809104026020016040519081016040528093929190818152602001838380828437600081840152601f19601f82011690508083019250505050505050610ad2565b9050600160009054906101000a900473ffffffffffffffffffffffffffffffffffffffff1673ffffffffffffffffffffffffffffffffffffffff168173ffffffffffffffffffffffffffffffffffffffff161461042e576040517f08c379a000000000000000000000000000000000000000000000000000000000815260040161042590611588565b60405180910390fd5b6002600083815260200190815260200160002060009054906101000a900460ff161561048f576040517f08c379a00000000000000000000000000000000000000000000000000000000081526004016104869061161a565b60405180910390fd5b60016002600084815260200190815260200160002060006101000a81548160ff02191690831515021790555060008054906101000a900473ffffffffffffffffffffffffffffffffffffffff1673ffffffffffffffffffffffffffffffffffffffff1663a9059cbb88886040518363ffffffff1660e01b8152600401610516929190611649565b6020604051808303816000875af1158015610535573d6000803e3d6000fd5b505050506040513d601f19601f820116820180604052508101906105599190611687565b508673ffffffffffffffffffffffffffffffffffffffff167fb23c1479f172495ed21554b204c9957c1ba10da311c9dcb4c5c3064a49ba8a998787856040516105a4939291906116c3565b60405180910390a250505050505050565b60006105bf610afe565b905060008160000160089054906101000a900460ff1615905060008260000160009054906101000a900467ffffffffffffffff1690506000808267ffffffffffffffff1614801561060d5750825b9050600060018367ffffffffffffffff16148015610642575060003073ffffffffffffffffffffffffffffffffffffffff163b145b905081158015610650575080155b15610687576040517ff92ee8a900000000000000000000000000000000000000000000000000000000815260040160405180910390fd5b60018560000160006101000a81548167ffffffffffffffff021916908367ffffffffffffffff16021790555083156106d75760018560000160086101000a81548160ff0219169083151502179055505b6106e76106e2610b12565b610b1a565b866000806101000a81548173ffffffffffffffffffffffffffffffffffffffff021916908373ffffffffffffffffffffffffffffffffffffffff16021790555060008060146101000a81548160ff02191690831515021790555085600160006101000a81548173ffffffffffffffffffffffffffffffffffffffff021916908373ffffffffffffffffffffffffffffffffffffffff16021790555083156107de5760008560000160086101000a81548160ff0219169083151502179055507fc7f505b2f371ae2175ee4913f4499e1f2633a7b5936321eed1cdaeb6115181d260016040516107d59190611749565b60405180910390a15b50505050505050565b6107ef610a4b565b60008054906101000a900473ffffffffffffffffffffffffffffffffffffffff1673ffffffffffffffffffffffffffffffffffffffff1663a9059cbb610833610969565b836040518363ffffffff1660e01b8152600401610851929190611649565b6020604051808303816000875af1158015610870573d6000803e3d6000fd5b505050506040513d601f19601f820116820180604052508101906108949190611687565b6108d3576040517f08c379a00000000000000000000000000000000000000000000000000000000081526004016108ca906117b0565b60405180910390fd5b50565b600060149054906101000a900460ff1681565b60026020528060005260406000206000915054906101000a900460ff1681565b610911610a4b565b80600160006101000a81548173ffffffffffffffffffffffffffffffffffffffff021916908373ffffffffffffffffffffffffffffffffffffffff16021790555050565b61095d610a4b565b6109676000610b2e565b565b600080610974610c05565b90508060000160009054906101000a900473ffffffffffffffffffffffffffffffffffffffff1691505090565b6109a9610a4b565b600073ffffffffffffffffffffffffffffffffffffffff168173ffffffffffffffffffffffffffffffffffffffff1603610a1b5760006040517f1e4fbdf7000000000000000000000000000000000000000000000000000000008152600401610a1291906110a2565b60405180910390fd5b610a2481610b2e565b50565b60008054906101000a900473ffffffffffffffffffffffffffffffffffffffff1681565b610a53610b12565b73ffffffffffffffffffffffffffffffffffffffff16610a71610969565b73ffffffffffffffffffffffffffffffffffffffff1614610ad057610a94610b12565b6040517f118cdaa7000000000000000000000000000000000000000000000000000000008152600401610ac791906110a2565b60405180910390fd5b565b600080600080610ae28686610c2d565b925092509250610af28282610c89565b82935050505092915050565b600080610b09610ded565b90508091505090565b600033905090565b610b22610e18565b610b2b81610e58565b50565b6000610b38610c05565b905060008160000160009054906101000a900473ffffffffffffffffffffffffffffffffffffffff169050828260000160006101000a81548173ffffffffffffffffffffffffffffffffffffffff021916908373ffffffffffffffffffffffffffffffffffffffff1602179055508273ffffffffffffffffffffffffffffffffffffffff168173ffffffffffffffffffffffffffffffffffffffff167f8be0079c531659141344cd1fd0a4f28419497f9722a3daafe3b4186f6b6457e060405160405180910390a3505050565b60007f9016d09d72d40fdae2fd8ceac6b6234c7706214fd39c1cd1e609a0528c199300905090565b60008060006041845103610c725760008060006020870151925060408701519150606087015160001a9050610c6488828585610ede565b955095509550505050610c82565b60006002855160001b9250925092505b9250925092565b60006003811115610c9d57610c9c6117d0565b5b826003811115610cb057610caf6117d0565b5b0315610de95760016003811115610cca57610cc96117d0565b5b826003811115610cdd57610cdc6117d0565b5b03610d14576040517ff645eedf00000000000000000000000000000000000000000000000000000000815260040160405180910390fd5b60026003811115610d2857610d276117d0565b5b826003811115610d3b57610d3a6117d0565b5b03610d80578060001c6040517ffce698f7000000000000000000000000000000000000000000000000000000008152600401610d7791906117ff565b60405180910390fd5b600380811115610d9357610d926117d0565b5b826003811115610da657610da56117d0565b5b03610de857806040517fd78bce0c000000000000000000000000000000000000000000000000000000008152600401610ddf919061181a565b60405180910390fd5b5b5050565b60007ff0c57e16840df040f15088dc2f81fe391c3923bec73e23a9662efc9c229c6a0060001b905090565b610e20610fd2565b610e56576040517fd7e6bcf800000000000000000000000000000000000000000000000000000000815260040160405180910390fd5b565b610e60610e18565b600073ffffffffffffffffffffffffffffffffffffffff168173ffffffffffffffffffffffffffffffffffffffff1603610ed25760006040517f1e4fbdf7000000000000000000000000000000000000000000000000000000008152600401610ec991906110a2565b60405180910390fd5b610edb81610b2e565b50565b60008060007f7fffffffffffffffffffffffffffffff5d576e7357a4501ddfe92f46681b20a08460001c1115610f1e576000600385925092509250610fc8565b600060018888888860405160008152602001604052604051610f439493929190611851565b6020604051602081039080840390855afa158015610f65573d6000803e3d6000fd5b505050602060405103519050600073ffffffffffffffffffffffffffffffffffffffff168173ffffffffffffffffffffffffffffffffffffffff1603610fb957600060016000801b93509350935050610fc8565b8060008060001b935093509350505b9450945094915050565b6000610fdc610afe565b60000160089054906101000a900460ff16905090565b600080fd5b600080fd5b60008115159050919050565b61101181610ffc565b811461101c57600080fd5b50565b60008135905061102e81611008565b92915050565b60006020828403121561104a57611049610ff2565b5b60006110588482850161101f565b91505092915050565b600073ffffffffffffffffffffffffffffffffffffffff82169050919050565b600061108c82611061565b9050919050565b61109c81611081565b82525050565b60006020820190506110b76000830184611093565b92915050565b6110c681611081565b81146110d157600080fd5b50565b6000813590506110e3816110bd565b92915050565b6000819050919050565b6110fc816110e9565b811461110757600080fd5b50565b600081359050611119816110f3565b92915050565b600080fd5b600080fd5b600080fd5b60008083601f8401126111445761114361111f565b5b8235905067ffffffffffffffff81111561116157611160611124565b5b60208301915083600182028301111561117d5761117c611129565b5b9250929050565b6000806000806000608086880312156111a05761119f610ff2565b5b60006111ae888289016110d4565b95505060206111bf8882890161110a565b94505060406111d08882890161110a565b935050606086013567ffffffffffffffff8111156111f1576111f0610ff7565b5b6111fd8882890161112e565b92509250509295509295909350565b6000806040838503121561122357611222610ff2565b5b6000611231858286016110d4565b9250506020611242858286016110d4565b9150509250929050565b60006020828403121561126257611261610ff2565b5b60006112708482850161110a565b91505092915050565b61128281610ffc565b82525050565b600060208201905061129d6000830184611279565b92915050565b6000819050919050565b6112b6816112a3565b81146112c157600080fd5b50565b6000813590506112d3816112ad565b92915050565b6000602082840312156112ef576112ee610ff2565b5b60006112fd848285016112c4565b91505092915050565b60006020828403121561131c5761131b610ff2565b5b600061132a848285016110d4565b91505092915050565b6000819050919050565b600061135861135361134e84611061565b611333565b611061565b9050919050565b600061136a8261133d565b9050919050565b600061137c8261135f565b9050919050565b61138c81611371565b82525050565b60006020820190506113a76000830184611383565b92915050565b600082825260208201905092915050565b7f5265626174653a20706175736564000000000000000000000000000000000000600082015250565b60006113f4600e836113ad565b91506113ff826113be565b602082019050919050565b60006020820190508181036000830152611423816113e7565b9050919050565b7f5265626174653a20696e76616c69642061646472657373000000000000000000600082015250565b60006114606017836113ad565b915061146b8261142a565b602082019050919050565b6000602082019050818103600083015261148f81611453565b9050919050565b60008160601b9050919050565b60006114ae82611496565b9050919050565b60006114c0826114a3565b9050919050565b6114d86114d382611081565b6114b5565b82525050565b6000819050919050565b6114f96114f4826110e9565b6114de565b82525050565b600061150b82866114c7565b60148201915061151b82856114e8565b60208201915061152b82846114e8565b602082019150819050949350505050565b7f5265626174653a20696e76616c6964207369676e617475726500000000000000600082015250565b60006115726019836113ad565b915061157d8261153c565b602082019050919050565b600060208201905081810360008301526115a181611565565b9050919050565b7f5265626174653a207472616e73616374696f6e20616c72656164792070726f6360008201527f6573736564000000000000000000000000000000000000000000000000000000602082015250565b60006116046025836113ad565b915061160f826115a8565b604082019050919050565b60006020820190508181036000830152611633816115f7565b9050919050565b611643816110e9565b82525050565b600060408201905061165e6000830185611093565b61166b602083018461163a565b9392505050565b60008151905061168181611008565b92915050565b60006020828403121561169d5761169c610ff2565b5b60006116ab84828501611672565b91505092915050565b6116bd816112a3565b82525050565b60006060820190506116d8600083018661163a565b6116e5602083018561163a565b6116f260408301846116b4565b949350505050565b6000819050919050565b600067ffffffffffffffff82169050919050565b600061173361172e611729846116fa565b611333565b611704565b9050919050565b61174381611718565b82525050565b600060208201905061175e600083018461173a565b92915050565b7f5265626174653a207769746864726177206661696c6564000000000000000000600082015250565b600061179a6017836113ad565b91506117a582611764565b602082019050919050565b600060208201905081810360008301526117c98161178d565b9050919050565b7f4e487b7100000000000000000000000000000000000000000000000000000000600052602160045260246000fd5b6000602082019050611814600083018461163a565b92915050565b600060208201905061182f60008301846116b4565b92915050565b600060ff82169050919050565b61184b81611835565b82525050565b600060808201905061186660008301876116b4565b6118736020830186611842565b61188060408301856116b4565b61188d60608301846116b4565b9594505050505056fea264697066735822122040797bb0c06e1ce8796fdd00785970889fb88f6cd754c6ef14ac6bdf15cc104a64736f6c63430008140033",
  "linkReferences": {},
  "deployedLinkReferences": {}
}